{"contracts/MessageVerifier.sol":{"MessageVerifier":{"abi":[{"inputs":[{"internalType":"bytes","name":"payload","type":"bytes"}],"name":"hashPayload","outputs":[{"internalType":"bytes32","name":"","type":"bytes32"}],"stateMutability":"pure","type":"function"},{"inputs":[{"internalType":"uint8","name":"version","type":"uint8"},{"internalType":"uint32","name":"guardianSetIndex","type":"uint32"},{"internalType":"uint16","name":"emitterChainId","type":"uint16"},{"internalType":"bytes32","name":"emitterAddress","type":"bytes32"},{"internalType":"uint64","name":"sequence","type":"uint64"},{"internalType":"bytes","name":"payload","type":"bytes"}],"name":"hashVAA","outputs":[{"internalType":"bytes32","name":"","type":"bytes32"}],"stateMutability":"pure","type":"function"}],"evm":{"bytecode":{"linkReferences":{},"object":"6080604052348015600f57600080fd5b506106128061001f6000396000f3fe608060405234801561001057600080fd5b50600436106100365760003560e01c80636c18b4881461003b578063c58b0a4d1461006b575b600080fd5b61005560048036038101906100509190610299565b61009b565b6040516100629190610357565b60405180910390f35b61008560048036038101906100809190610372565b6100e3565b6040516100929190610357565b60405180910390f35b6000600160f81b888888888888886040516020016100c0989796959493929190610544565b604051602081830303815290604052805190602001209050979650505050505050565b600082826040516100f59291906105c3565b6040518091039020905092915050565b600080fd5b600080fd5b600060ff82169050919050565b6101258161010f565b811461013057600080fd5b50565b6000813590506101428161011c565b92915050565b600063ffffffff82169050919050565b61016181610148565b811461016c57600080fd5b50565b60008135905061017e81610158565b92915050565b600061ffff82169050919050565b61019b81610184565b81146101a657600080fd5b50565b6000813590506101b881610192565b92915050565b6000819050919050565b6101d1816101be565b81146101dc57600080fd5b50565b6000813590506101ee816101c8565b92915050565b600067ffffffffffffffff82169050919050565b610211816101f4565b811461021c57600080fd5b50565b60008135905061022e81610208565b92915050565b600080fd5b600080fd5b600080fd5b60008083601f84011261025957610258610234565b5b8235905067ffffffffffffffff81111561027657610275610239565b5b6020830191508360018202830111156102925761029161023e565b5b9250929050565b600080600080600080600060c0888a0312156102b8576102b7610105565b5b60006102c68a828b01610133565b97505060206102d78a828b0161016f565b96505060406102e88a828b016101a9565b95505060606102f98a828b016101df565b945050608061030a8a828b0161021f565b93505060a088013567ffffffffffffffff81111561032b5761032a61010a565b5b6103378a828b01610243565b925092505092959891949750929550565b610351816101be565b82525050565b600060208201905061036c6000830184610348565b92915050565b6000806020838503121561038957610388610105565b5b600083013567ffffffffffffffff8111156103a7576103a661010a565b5b6103b385828601610243565b92509250509250929050565b60007fff0000000000000000000000000000000000000000000000000000000000000082169050919050565b6000819050919050565b610406610401826103bf565b6103eb565b82525050565b60008160f81b9050919050565b60006104248261040c565b9050919050565b61043c6104378261010f565b610419565b82525050565b60008160e01b9050919050565b600061045a82610442565b9050919050565b61047261046d82610148565b61044f565b82525050565b60008160f01b9050919050565b600061049082610478565b9050919050565b6104a86104a382610184565b610485565b82525050565b6000819050919050565b6104c96104c4826101be565b6104ae565b82525050565b60008160c01b9050919050565b60006104e7826104cf565b9050919050565b6104ff6104fa826101f4565b6104dc565b82525050565b600081905092915050565b82818337600083830152505050565b600061052b8385610505565b9350610538838584610510565b82840190509392505050565b6000610550828b6103f5565b600182019150610560828a61042b565b6001820191506105708289610461565b6004820191506105808288610497565b60028201915061059082876104b8565b6020820191506105a082866104ee565b6008820191506105b182848661051f565b91508190509998505050505050505050565b60006105d082848661051f565b9150819050939250505056fea2646970667358221220501067966863b66fd0feb1cd606a3a6078dd57add5b5c0d660c2f1986377c65d64736f6c634300081c0033","opcodes":"PUSH1 0x80 PUSH1 0x40 MSTORE CALLVALUE DUP1 ISZERO PUSH1 0xF JUMPI PUSH1 0x0 DUP1 REVERT JUMPDEST POP PUSH2 0x612 DUP1 PUSH2 0x1F PUSH1 0x0 CODECOPY PUSH1 0x0 RETURN INVALID PUSH1 0x80 PUSH1 0x40 MSTORE CALLVALUE DUP1 ISZERO PUSH2 0x10 JUMPI PUSH1 0x0 DUP1 REVERT JUMPDEST POP PUSH1 0x4 CALLDATASIZE LT PUSH2 0x36 JUMPI PUSH1 0x0 CALLDATALOAD PUSH1 0xE0 SHR DUP1 PUSH4 0x6C18B488 EQ PUSH2 0x3B JUMPI DUP1 PUSH4 0xC58B0A4D EQ PUSH2 0x6B JUMPI JUMPDEST PUSH1 0x0 DUP1 REVERT JUMPDEST PUSH2 0x55 PUSH1 0x4 DUP1 CALLDATASIZE SUB DUP2 ADD SWAP1 PUSH2 0x50 SWAP2 SWAP1 PUSH2 0x299 JUMP JUMPDEST PUSH2 0x9B JUMP JUMPDEST PUSH1 0x40 MLOAD PUSH2 0x62 SWAP2 SWAP1 PUSH2 0x357 JUMP JUMPDEST PUSH1 0x40 MLOAD DUP1 SWAP2 SUB SWAP1 RETURN JUMPDEST PUSH2 0x85 PUSH1 0x4 DUP1 CALLDATASIZE SUB DUP2 ADD SWAP1 PUSH2 0x80 SWAP2 SWAP1 PUSH2 0x372 JUMP JUMPDEST PUSH2 0xE3 JUMP JUMPDEST PUSH1 0x40 MLOAD PUSH2 0x92 SWAP2 SWAP1 PUSH2 0x357 JUMP JUMPDEST PUSH1 0x40 MLOAD DUP1 SWAP2 SUB SWAP1 RETURN JUMPDEST PUSH1 0x0 PUSH1 0x1 PUSH1 0xF8 SHL DUP9 DUP9 DUP9 DUP9 DUP9 DUP9 DUP9 PUSH1 0x40 MLOAD PUSH1 0x20 ADD PUSH2 0xC0 SWAP9 SWAP8 SWAP7 SWAP6 SWAP5 SWAP4 SWAP3 SWAP2 SWAP1 PUSH2 0x544 JUMP JUMPDEST PUSH1 0x40 MLOAD PUSH1 0x20 DUP2 DUP4 SUB SUB DUP2 MSTORE SWAP1 PUSH1 0x40 MSTORE DUP1 MLOAD SWAP1 PUSH1 0x20 ADD KECCAK256 SWAP1 POP SWAP8 SWAP7 POP POP POP POP POP POP POP JUMP JUMPDEST PUSH1 0x0 DUP3 DUP3 PUSH1 0x40 MLOAD PUSH2 0xF5 SWAP3 SWAP2 SWAP1 PUSH2 0x5C3 JUMP JUMPDEST PUSH1 0x40 MLOAD DUP1 SWAP2 SUB SWAP1 KECCAK256 SWAP1 POP SWAP3 SWAP2 POP POP JUMP JUMPDEST PUSH1 0x0 DUP1 REVERT JUMPDEST PUSH1 0x0 DUP1 REVERT JUMPDEST PUSH1 0x0 PUSH1 0xFF DUP3 AND SWAP1 POP SWAP2 SWAP1 POP JUMP JUMPDEST PUSH2 0x125 DUP2 PUSH2 0x10F JUMP JUMPDEST DUP2 EQ PUSH2 0x130 JUMPI PUSH1 0x0 DUP1 REVERT JUMPDEST POP JUMP JUMPDEST PUSH1 0x0 DUP2 CALLDATALOAD SWAP1 POP PUSH2 0x142 DUP2 PUSH2 0x11C JUMP JUMPDEST SWAP3 SWAP2 POP POP JUMP JUMPDEST PUSH1 0x0 PUSH4 0xFFFFFFFF DUP3 AND SWAP1 POP SWAP2 SWAP1 POP JUMP JUMPDEST PUSH2 0x161 DUP2 PUSH2 0x148 JUMP JUMPDEST DUP2 EQ PUSH2 0x16C JUMPI PUSH1 0x0 DUP1 REVERT JUMPDEST POP JUMP JUMPDEST PUSH1 0x0 DUP2 CALLDATALOAD SWAP1 POP PUSH2 0x17E DUP2 PUSH2 0x158 JUMP JUMPDEST SWAP3 SWAP2 POP POP JUMP JUMPDEST PUSH1 0x0 PUSH2 0xFFFF DUP3 AND SWAP1 POP SWAP2 SWAP1 POP JUMP JUMPDEST PUSH2 0x19B DUP2 PUSH2 0x184 JUMP JUMPDEST DUP2 EQ PUSH2 0x1A6 JUMPI PUSH1 0x0 DUP1 REVERT JUMPDEST POP JUMP JUMPDEST PUSH1 0x0 DUP2 CALLDATALOAD SWAP1 POP PUSH2 0x1B8 DUP2 PUSH2 0x192 JUMP JUMPDEST SWAP3 SWAP2 POP POP JUMP JUMPDEST PUSH1 0x0 DUP2 SWAP1 POP SWAP2 SWAP1 POP JUMP JUMPDEST PUSH2 0x1D1 DUP2 PUSH2 0x1BE JUMP JUMPDEST DUP2 EQ PUSH2 0x1DC JUMPI PUSH1 0x0 DUP1 REVERT JUMPDEST POP JUMP JUMPDEST PUSH1 0x0 DUP2 CALLDATALOAD SWAP1 POP PUSH2 0x1EE DUP2 PUSH2 0x1C8 JUMP JUMPDEST SWAP3 SWAP2 POP POP JUMP JUMPDEST PUSH1 0x0 PUSH8 0xFFFFFFFFFFFFFFFF DUP3 AND SWAP1 POP SWAP2 SWAP1 POP JUMP JUMPDEST PUSH2 0x211 DUP2 PUSH2 0x1F4 JUMP JUMPDEST DUP2 EQ PUSH2 0x21C JUMPI PUSH1 0x0 DUP1 REVERT JUMPDEST POP JUMP JUMPDEST PUSH1 0x0 DUP2 CALLDATALOAD SWAP1 POP PUSH2 0x22E DUP2 PUSH2 0x208 JUMP JUMPDEST SWAP3 SWAP2 POP POP JUMP JUMPDEST PUSH1 0x0 DUP1 REVERT JUMPDEST PUSH1 0x0 DUP1 REVERT JUMPDEST PUSH1 0x0 DUP1 REVERT JUMPDEST PUSH1 0x0 DUP1 DUP4 PUSH1 0x1F DUP5 ADD SLT PUSH2 0x259 JUMPI PUSH2 0x258 PUSH2 0x234 JUMP JUMPDEST JUMPDEST DUP3 CALLDATALOAD SWAP1 POP PUSH8 0xFFFFFFFFFFFFFFFF DUP2 GT ISZERO PUSH2 0x276 JUMPI PUSH2 0x275 PUSH2 0x239 JUMP JUMPDEST JUMPDEST PUSH1 0x20 DUP4 ADD SWAP2 POP DUP4 PUSH1 0x1 DUP3 MUL DUP4 ADD GT ISZERO PUSH2 0x292 JUMPI PUSH2 0x291 PUSH2 0x23E JUMP JUMPDEST JUMPDEST SWAP3 POP SWAP3 SWAP1 POP JUMP JUMPDEST PUSH1 0x0 DUP1 PUSH1 0x0 DUP1 PUSH1 0x0 DUP1 PUSH1 0x0 PUSH1 0xC0 DUP9 DUP11 SUB SLT ISZERO PUSH2 0x2B8 JUMPI PUSH2 0x2B7 PUSH2 0x105 JUMP JUMPDEST JUMPDEST PUSH1 0x0 PUSH2 0x2C6 DUP11 DUP3 DUP12 ADD PUSH2 0x133 JUMP JUMPDEST SWAP8 POP POP PUSH1 0x20 PUSH2 0x2D7 DUP11 DUP3 DUP12 ADD PUSH2 0x16F JUMP JUMPDEST SWAP7 POP POP PUSH1 0x40 PUSH2 0x2E8 DUP11 DUP3 DUP12 ADD PUSH2 0x1A9 JUMP JUMPDEST SWAP6 POP POP PUSH1 0x60 PUSH2 0x2F9 DUP11 DUP3 DUP12 ADD PUSH2 0x1DF JUMP JUMPDEST SWAP5 POP POP PUSH1 0x80 PUSH2 0x30A DUP11 DUP3 DUP12 ADD PUSH2 0x21F JUMP JUMPDEST SWAP4 POP POP PUSH1 0xA0 DUP9 ADD CALLDATALOAD PUSH8 0xFFFFFFFFFFFFFFFF DUP2 GT ISZERO PUSH2 0x32B JUMPI PUSH2 0x32A PUSH2 0x10A JUMP JUMPDEST JUMPDEST PUSH2 0x337 DUP11 DUP3 DUP12 ADD PUSH2 0x243 JUMP JUMPDEST SWAP3 POP SWAP3 POP POP SWAP3 SWAP6 SWAP9 SWAP2 SWAP5 SWAP8 POP SWAP3 SWAP6 POP JUMP JUMPDEST PUSH2 0x351 DUP2 PUSH2 0x1BE JUMP JUMPDEST DUP3 MSTORE POP POP JUMP JUMPDEST PUSH1 0x0 PUSH1 0x20 DUP3 ADD SWAP1 POP PUSH2 0x36C PUSH1 0x0 DUP4 ADD DUP5 PUSH2 0x348 JUMP JUMPDEST SWAP3 SWAP2 POP POP JUMP JUMPDEST PUSH1 0x0 DUP1 PUSH1 0x20 DUP4 DUP6 SUB SLT ISZERO PUSH2 0x389 JUMPI PUSH2 0x388 PUSH2 0x105 JUMP JUMPDEST JUMPDEST PUSH1 0x0 DUP4 ADD CALLDATALOAD PUSH8 0xFFFFFFFFFFFFFFFF DUP2 GT ISZERO PUSH2 0x3A7 JUMPI PUSH2 0x3A6 PUSH2 0x10A JUMP JUMPDEST JUMPDEST PUSH2 0x3B3 DUP6 DUP3 DUP7 ADD PUSH2 0x243 JUMP JUMPDEST SWAP3 POP SWAP3 POP POP SWAP3 POP SWAP3 SWAP1 POP JUMP JUMPDEST PUSH1 0x0 PUSH32 0xFF00000000000000000000000000000000000000000000000000000000000000 DUP3 AND SWAP1 POP SWAP2 SWAP1 POP JUMP JUMPDEST PUSH1 0x0 DUP2 SWAP1 POP SWAP2 SWAP1 POP JUMP JUMPDEST PUSH2 0x406 PUSH2 0x401 DUP3 PUSH2 0x3BF JUMP JUMPDEST PUSH2 0x3EB JUMP JUMPDEST DUP3 MSTORE POP POP JUMP JUMPDEST PUSH1 0x0 DUP2 PUSH1 0xF8 SHL SWAP1 POP SWAP2 SWAP1 POP JUMP JUMPDEST PUSH1 0x0 PUSH2 0x424 DUP3 PUSH2 0x40C JUMP JUMPDEST SWAP1 POP SWAP2 SWAP1 POP JUMP JUMPDEST PUSH2 0x43C PUSH2 0x437 DUP3 PUSH2 0x10F JUMP JUMPDEST PUSH2 0x419 JUMP JUMPDEST DUP3 MSTORE POP POP JUMP JUMPDEST PUSH1 0x0 DUP2 PUSH1 0xE0 SHL SWAP1 POP SWAP2 SWAP1 POP JUMP JUMPDEST PUSH1 0x0 PUSH2 0x45A DUP3 PUSH2 0x442 JUMP JUMPDEST SWAP1 POP SWAP2 SWAP1 POP JUMP JUMPDEST PUSH2 0x472 PUSH2 0x46D DUP3 PUSH2 0x148 JUMP JUMPDEST PUSH2 0x44F JUMP JUMPDEST DUP3 MSTORE POP POP JUMP JUMPDEST PUSH1 0x0 DUP2 PUSH1 0xF0 SHL SWAP1 POP SWAP2 SWAP1 POP JUMP JUMPDEST PUSH1 0x0 PUSH2 0x490 DUP3 PUSH2 0x478 JUMP JUMPDEST SWAP1 POP SWAP2 SWAP1 POP JUMP JUMPDEST PUSH2 0x4A8 PUSH2 0x4A3 DUP3 PUSH2 0x184 JUMP JUMPDEST PUSH2 0x485 JUMP JUMPDEST DUP3 MSTORE POP POP JUMP JUMPDEST PUSH1 0x0 DUP2 SWAP1 POP SWAP2 SWAP1 POP JUMP JUMPDEST PUSH2 0x4C9 PUSH2 0x4C4 DUP3 PUSH2 0x1BE JUMP JUMPDEST PUSH2 0x4AE JUMP JUMPDEST DUP3 MSTORE POP POP JUMP JUMPDEST PUSH1 0x0 DUP2 PUSH1 0xC0 SHL SWAP1 POP SWAP2 SWAP1 POP JUMP JUMPDEST PUSH1 0x0 PUSH2 0x4E7 DUP3 PUSH2 0x4CF JUMP JUMPDEST SWAP1 POP SWAP2 SWAP1 POP JUMP JUMPDEST PUSH2 0x4FF PUSH2 0x4FA DUP3 PUSH2 0x1F4 JUMP JUMPDEST PUSH2 0x4DC JUMP JUMPDEST DUP3 MSTORE POP POP JUMP JUMPDEST PUSH1 0x0 DUP2 SWAP1 POP SWAP3 SWAP2 POP POP JUMP JUMPDEST DUP3 DUP2 DUP4 CALLDATACOPY PUSH1 0x0 DUP4 DUP4 ADD MSTORE POP POP POP JUMP JUMPDEST PUSH1 0x0 PUSH2 0x52B DUP4 DUP6 PUSH2 0x505 JUMP JUMPDEST SWAP4 POP PUSH2 0x538 DUP4 DUP6 DUP5 PUSH2 0x510 JUMP JUMPDEST DUP3 DUP5 ADD SWAP1 POP SWAP4 SWAP3 POP POP POP JUMP JUMPDEST PUSH1 0x0 PUSH2 0x550 DUP3 DUP12 PUSH2 0x3F5 JUMP JUMPDEST PUSH1 0x1 DUP3 ADD SWAP2 POP PUSH2 0x560 DUP3 DUP11 PUSH2 0x42B JUMP JUMPDEST PUSH1 0x1 DUP3 ADD SWAP2 POP PUSH2 0x570 DUP3 DUP10 PUSH2 0x461 JUMP JUMPDEST PUSH1 0x4 DUP3 ADD SWAP2 POP PUSH2 0x580 DUP3 DUP9 PUSH2 0x497 JUMP JUMPDEST PUSH1 0x2 DUP3 ADD SWAP2 POP PUSH2 0x590 DUP3 DUP8 PUSH2 0x4B8 JUMP JUMPDEST PUSH1 0x20 DUP3 ADD SWAP2 POP PUSH2 0x5A0 DUP3 DUP7 PUSH2 0x4EE JUMP JUMPDEST PUSH1 0x8 DUP3 ADD SWAP2 POP PUSH2 0x5B1 DUP3 DUP5 DUP7 PUSH2 0x51F JUMP JUMPDEST SWAP2 POP DUP2 SWAP1 POP SWAP10 SWAP9 POP POP POP POP POP POP POP POP POP JUMP JUMPDEST PUSH1 0x0 PUSH2 0x5D0 DUP3 DUP5 DUP7 PUSH2 0x51F JUMP JUMPDEST SWAP2 POP DUP2 SWAP1 POP SWAP4 SWAP3 POP POP POP JUMP INVALID LOG2 PUSH5 0x6970667358 0x22 SLT KECCAK256 POP LT PUSH8 0x966863B66FD0FEB1 0xCD PUSH1 0x6A GASPRICE PUSH1 0x78 0xDD JUMPI 0xAD 0xD5 0xB5 0xC0 0xD6 PUSH1 0xC2 CALL SWAP9 PUSH4 0x77C65D64 PUSH20 0x6F6C634300081C00330000000000000000000000 "},"methodIdentifiers":{"hashPayload(bytes)":"c58b0a4d","hashVAA(uint8,uint32,uint16,bytes32,uint64,bytes)":"6c18b488"}},"storageLayout":{"storage":[],"types":null}}}}