{
  "_format": "hh-sol-artifact-1",
  "contractName": "BridgeManager",
  "sourceName": "contracts/BridgeManager.sol",
  "abi": [
    {
      "inputs": [
        {
          "internalType": "address",
          "name": "target",
          "type": "address"
        }
      ],
      "name": "AddressEmptyCode",
      "type": "error"
    },
    {
      "inputs": [
        {
          "internalType": "address",
          "name": "implementation",
          "type": "address"
        }
      ],
      "name": "ERC1967InvalidImplementation",
      "type": "error"
    },
    {
      "inputs": [],
      "name": "ERC1967NonPayable",
      "type": "error"
    },
    {
      "inputs": [],
      "name": "FailedCall",
      "type": "error"
    },
    {
      "inputs": [],
      "name": "InvalidInitialization",
      "type": "error"
    },
    {
      "inputs": [],
      "name": "NotInitializing",
      "type": "error"
    },
    {
      "inputs": [
        {
          "internalType": "address",
          "name": "owner",
          "type": "address"
        }
      ],
      "name": "OwnableInvalidOwner",
      "type": "error"
    },
    {
      "inputs": [
        {
          "internalType": "address",
          "name": "account",
          "type": "address"
        }
      ],
      "name": "OwnableUnauthorizedAccount",
      "type": "error"
    },
    {
      "inputs": [],
      "name": "ReentrancyGuardReentrantCall",
      "type": "error"
    },
    {
      "inputs": [],
      "name": "UUPSUnauthorizedCallContext",
      "type": "error"
    },
    {
      "inputs": [
        {
          "internalType": "bytes32",
          "name": "slot",
          "type": "bytes32"
        }
      ],
      "name": "UUPSUnsupportedProxiableUUID",
      "type": "error"
    },
    {
      "anonymous": false,
      "inputs": [
        {
          "indexed": true,
          "internalType": "address",
          "name": "recipient",
          "type": "address"
        },
        {
          "indexed": false,
          "internalType": "uint256",
          "name": "amount",
          "type": "uint256"
        },
        {
          "indexed": true,
          "internalType": "bytes32",
          "name": "orderId",
          "type": "bytes32"
        }
      ],
      "name": "ETHUnlocked",
      "type": "event"
    },
    {
      "anonymous": false,
      "inputs": [
        {
          "indexed": false,
          "internalType": "uint64",
          "name": "version",
          "type": "uint64"
        }
      ],
      "name": "Initialized",
      "type": "event"
    },
    {
      "anonymous": false,
      "inputs": [
        {
          "indexed": true,
          "internalType": "address",
          "name": "previousOwner",
          "type": "address"
        },
        {
          "indexed": true,
          "internalType": "address",
          "name": "newOwner",
          "type": "address"
        }
      ],
      "name": "OwnershipTransferred",
      "type": "event"
    },
    {
      "anonymous": false,
      "inputs": [
        {
          "indexed": true,
          "internalType": "address",
          "name": "implementation",
          "type": "address"
        }
      ],
      "name": "Upgraded",
      "type": "event"
    },
    {
      "anonymous": false,
      "inputs": [
        {
          "indexed": true,
          "internalType": "bytes32",
          "name": "vaaHash",
          "type": "bytes32"
        },
        {
          "indexed": true,
          "internalType": "uint16",
          "name": "emitterChainId",
          "type": "uint16"
        },
        {
          "indexed": true,
          "internalType": "bytes32",
          "name": "emitterAddress",
          "type": "bytes32"
        },
        {
          "indexed": false,
          "internalType": "uint64",
          "name": "sequence",
          "type": "uint64"
        }
      ],
      "name": "VAAConsumed",
      "type": "event"
    },
    {
      "inputs": [],
      "name": "UPGRADE_INTERFACE_VERSION",
      "outputs": [
        {
          "internalType": "string",
          "name": "",
          "type": "string"
        }
      ],
      "stateMutability": "view",
      "type": "function"
    },
    {
      "inputs": [],
      "name": "chainId",
      "outputs": [
        {
          "internalType": "uint16",
          "name": "",
          "type": "uint16"
        }
      ],
      "stateMutability": "view",
      "type": "function"
    },
    {
      "inputs": [
        {
          "internalType": "bytes32",
          "name": "",
          "type": "bytes32"
        }
      ],
      "name": "consumedVAAs",
      "outputs": [
        {
          "internalType": "bool",
          "name": "",
          "type": "bool"
        }
      ],
      "stateMutability": "view",
      "type": "function"
    },
    {
      "inputs": [
        {
          "internalType": "uint8",
          "name": "version",
          "type": "uint8"
        },
        {
          "internalType": "uint32",
          "name": "guardianSetIndex",
          "type": "uint32"
        },
        {
          "internalType": "uint16",
          "name": "emitterChainId",
          "type": "uint16"
        },
        {
          "internalType": "bytes32",
          "name": "emitterAddress",
          "type": "bytes32"
        },
        {
          "internalType": "uint64",
          "name": "sequence",
          "type": "uint64"
        },
        {
          "internalType": "bytes",
          "name": "payload",
          "type": "bytes"
        },
        {
          "internalType": "bytes[]",
          "name": "signatures",
          "type": "bytes[]"
        }
      ],
      "name": "executeVAA",
      "outputs": [],
      "stateMutability": "nonpayable",
      "type": "function"
    },
    {
      "inputs": [
        {
          "internalType": "uint16",
          "name": "emitterChainId",
          "type": "uint16"
        },
        {
          "internalType": "bytes32",
          "name": "emitterAddress",
          "type": "bytes32"
        }
      ],
      "name": "getLastSequence",
      "outputs": [
        {
          "internalType": "uint64",
          "name": "",
          "type": "uint64"
        }
      ],
      "stateMutability": "view",
      "type": "function"
    },
    {
      "inputs": [
        {
          "internalType": "uint16",
          "name": "_chainId",
          "type": "uint16"
        },
        {
          "internalType": "address",
          "name": "_validatorRegistry",
          "type": "address"
        },
        {
          "internalType": "address",
          "name": "_verifier",
          "type": "address"
        }
      ],
      "name": "initialize",
      "outputs": [],
      "stateMutability": "nonpayable",
      "type": "function"
    },
    {
      "inputs": [
        {
          "internalType": "bytes32",
          "name": "vaaHash",
          "type": "bytes32"
        }
      ],
      "name": "isVAAConsumed",
      "outputs": [
        {
          "internalType": "bool",
          "name": "",
          "type": "bool"
        }
      ],
      "stateMutability": "view",
      "type": "function"
    },
    {
      "inputs": [
        {
          "internalType": "uint16",
          "name": "",
          "type": "uint16"
        },
        {
          "internalType": "bytes32",
          "name": "",
          "type": "bytes32"
        }
      ],
      "name": "lastSequence",
      "outputs": [
        {
          "internalType": "uint64",
          "name": "",
          "type": "uint64"
        }
      ],
      "stateMutability": "view",
      "type": "function"
    },
    {
      "inputs": [],
      "name": "owner",
      "outputs": [
        {
          "internalType": "address",
          "name": "",
          "type": "address"
        }
      ],
      "stateMutability": "view",
      "type": "function"
    },
    {
      "inputs": [],
      "name": "proxiableUUID",
      "outputs": [
        {
          "internalType": "bytes32",
          "name": "",
          "type": "bytes32"
        }
      ],
      "stateMutability": "view",
      "type": "function"
    },
    {
      "inputs": [],
      "name": "renounceOwnership",
      "outputs": [],
      "stateMutability": "nonpayable",
      "type": "function"
    },
    {
      "inputs": [
        {
          "internalType": "address",
          "name": "newOwner",
          "type": "address"
        }
      ],
      "name": "transferOwnership",
      "outputs": [],
      "stateMutability": "nonpayable",
      "type": "function"
    },
    {
      "inputs": [
        {
          "internalType": "address",
          "name": "newImplementation",
          "type": "address"
        },
        {
          "internalType": "bytes",
          "name": "data",
          "type": "bytes"
        }
      ],
      "name": "upgradeToAndCall",
      "outputs": [],
      "stateMutability": "payable",
      "type": "function"
    },
    {
      "inputs": [],
      "name": "validatorRegistry",
      "outputs": [
        {
          "internalType": "contract ValidatorRegistry",
          "name": "",
          "type": "address"
        }
      ],
      "stateMutability": "view",
      "type": "function"
    },
    {
      "inputs": [],
      "name": "verifier",
      "outputs": [
        {
          "internalType": "contract MessageVerifier",
          "name": "",
          "type": "address"
        }
      ],
      "stateMutability": "view",
      "type": "function"
    },
    {
      "stateMutability": "payable",
      "type": "receive"
    }
  ],
  "bytecode": "0x60a06040523073ffffffffffffffffffffffffffffffffffffffff1660809073ffffffffffffffffffffffffffffffffffffffff16815250348015604257600080fd5b50608051612a5361006c60003960008181610cec01528181610d410152610efc0152612a536000f3fe6080604052600436106100ec5760003560e01c80639a8a05921161008a578063ad3cb1cc11610059578063ad3cb1cc146102f4578063b042438e1461031f578063f2fde38b14610348578063f376ebbb14610371576100f3565b80639a8a059214610226578063a2cddeb114610251578063a31fe4091461028e578063aa1b1e38146102cb576100f3565b806352d1902d116100c657806352d1902d1461017c578063715018a6146101a757806380eb3239146101be5780638da5cb5b146101fb576100f3565b80631a348754146100f85780632b7ac3f3146101355780634f1ef28614610160576100f3565b366100f357005b600080fd5b34801561010457600080fd5b5061011f600480360381019061011a91906118e5565b61039c565b60405161012c9190611948565b60405180910390f35b34801561014157600080fd5b5061014a6103e7565b60405161015791906119e2565b60405180910390f35b61017a60048036038101906101759190611b81565b61040d565b005b34801561018857600080fd5b5061019161042c565b60405161019e9190611bec565b60405180910390f35b3480156101b357600080fd5b506101bc61045f565b005b3480156101ca57600080fd5b506101e560048036038101906101e09190611c07565b610473565b6040516101f29190611c4f565b60405180910390f35b34801561020757600080fd5b5061021061049d565b60405161021d9190611c79565b60405180910390f35b34801561023257600080fd5b5061023b6104d5565b6040516102489190611ca3565b60405180910390f35b34801561025d57600080fd5b50610278600480360381019061027391906118e5565b6104e9565b6040516102859190611948565b60405180910390f35b34801561029a57600080fd5b506102b560048036038101906102b09190611c07565b61051f565b6040516102c29190611c4f565b60405180910390f35b3480156102d757600080fd5b506102f260048036038101906102ed9190611cbe565b61053f565b005b34801561030057600080fd5b5061030961089b565b6040516103169190611d90565b60405180910390f35b34801561032b57600080fd5b5061034660048036038101906103419190611f09565b6108d4565b005b34801561035457600080fd5b5061036f600480360381019061036a9190611feb565b610c40565b005b34801561037d57600080fd5b50610386610cc6565b6040516103939190612039565b60405180910390f35b6000600260008461ffff1661ffff168152602001908152602001600020600083815260200190815260200160002060009054906101000a900467ffffffffffffffff16905092915050565b600160009054906101000a900473ffffffffffffffffffffffffffffffffffffffff1681565b610415610cea565b61041e82610dd0565b6104288282610ddb565b5050565b6000610436610efa565b7f360894a13ba1a3210667c828492db98dca3e2076cc3735a920a3ca505d382bbc60001b905090565b610467610f81565b6104716000611008565b565b60006003600083815260200190815260200160002060009054906101000a900460ff169050919050565b6000806104a86110df565b90508060000160009054906101000a900473ffffffffffffffffffffffffffffffffffffffff1691505090565b600460009054906101000a900461ffff1681565b60026020528160005260406000206020528060005260406000206000915091509054906101000a900467ffffffffffffffff1681565b60036020528060005260406000206000915054906101000a900460ff1681565b6000610549611107565b905060008160000160089054906101000a900460ff1615905060008260000160009054906101000a900467ffffffffffffffff1690506000808267ffffffffffffffff161480156105975750825b9050600060018367ffffffffffffffff161480156105cc575060003073ffffffffffffffffffffffffffffffffffffffff163b145b9050811580156105da575080155b15610611576040517ff92ee8a900000000000000000000000000000000000000000000000000000000815260040160405180910390fd5b60018560000160006101000a81548167ffffffffffffffff021916908367ffffffffffffffff16021790555083156106615760018560000160086101000a81548160ff0219169083151502179055505b60008861ffff16036106a8576040517f08c379a000000000000000000000000000000000000000000000000000000000815260040161069f906120a0565b60405180910390fd5b600073ffffffffffffffffffffffffffffffffffffffff168773ffffffffffffffffffffffffffffffffffffffff1603610717576040517f08c379a000000000000000000000000000000000000000000000000000000000815260040161070e9061210c565b60405180910390fd5b600073ffffffffffffffffffffffffffffffffffffffff168673ffffffffffffffffffffffffffffffffffffffff1603610786576040517f08c379a000000000000000000000000000000000000000000000000000000000815260040161077d90612178565b60405180910390fd5b87600460006101000a81548161ffff021916908361ffff160217905550866000806101000a81548173ffffffffffffffffffffffffffffffffffffffff021916908373ffffffffffffffffffffffffffffffffffffffff16021790555085600160006101000a81548173ffffffffffffffffffffffffffffffffffffffff021916908373ffffffffffffffffffffffffffffffffffffffff16021790555061082d3361111b565b61083561112f565b83156108915760008560000160086101000a81548160ff0219169083151502179055507fc7f505b2f371ae2175ee4913f4499e1f2633a7b5936321eed1cdaeb6115181d2600160405161088891906121d3565b60405180910390a15b5050505050505050565b6040518060400160405280600581526020017f352e302e3000000000000000000000000000000000000000000000000000000081525081565b6108dc611141565b6000600160009054906101000a900473ffffffffffffffffffffffffffffffffffffffff1673ffffffffffffffffffffffffffffffffffffffff16636c18b4888b8b8b8b8b8b8b6040518863ffffffff1660e01b8152600401610945979695949392919061224a565b602060405180830381865afa158015610962573d6000803e3d6000fd5b505050506040513d601f19601f8201168201806040525081019061098691906122c9565b90506003600082815260200190815260200160002060009054906101000a900460ff16156109e9576040517f08c379a00000000000000000000000000000000000000000000000000000000081526004016109e090612368565b60405180910390fd5b600260008961ffff1661ffff168152602001908152602001600020600088815260200190815260200160002060009054906101000a900467ffffffffffffffff1667ffffffffffffffff168667ffffffffffffffff1611610a7f576040517f08c379a0000000000000000000000000000000000000000000000000000000008152600401610a76906123d4565b60405180910390fd5b60008060009054906101000a900473ffffffffffffffffffffffffffffffffffffffff1673ffffffffffffffffffffffffffffffffffffffff1663fd3a12f68b8487876040518563ffffffff1660e01b8152600401610ae19493929190612558565b602060405180830381865afa158015610afe573d6000803e3d6000fd5b505050506040513d601f19601f82011682018060405250810190610b2291906125c4565b905080610b64576040517f08c379a0000000000000000000000000000000000000000000000000000000008152600401610b5b90612663565b60405180910390fd5b60016003600084815260200190815260200160002060006101000a81548160ff02191690831515021790555086600260008b61ffff1661ffff16815260200190815260200160002060008a815260200190815260200160002060006101000a81548167ffffffffffffffff021916908367ffffffffffffffff160217905550610bed8686611198565b878961ffff16837f5cee40cc68373073bfaf1bac534b084ad8ff09aea8981f5a2116e758e001a6f18a604051610c239190611948565b60405180910390a45050610c356113b1565b505050505050505050565b610c48610f81565b600073ffffffffffffffffffffffffffffffffffffffff168173ffffffffffffffffffffffffffffffffffffffff1603610cba5760006040517f1e4fbdf7000000000000000000000000000000000000000000000000000000008152600401610cb19190611c79565b60405180910390fd5b610cc381611008565b50565b60008054906101000a900473ffffffffffffffffffffffffffffffffffffffff1681565b7f000000000000000000000000000000000000000000000000000000000000000073ffffffffffffffffffffffffffffffffffffffff163073ffffffffffffffffffffffffffffffffffffffff161480610d9757507f000000000000000000000000000000000000000000000000000000000000000073ffffffffffffffffffffffffffffffffffffffff16610d7e6113ca565b73ffffffffffffffffffffffffffffffffffffffff1614155b15610dce576040517fe07c8dba00000000000000000000000000000000000000000000000000000000815260040160405180910390fd5b565b610dd8610f81565b50565b8173ffffffffffffffffffffffffffffffffffffffff166352d1902d6040518163ffffffff1660e01b8152600401602060405180830381865afa925050508015610e4357506040513d601f19601f82011682018060405250810190610e4091906122c9565b60015b610e8457816040517f4c9c8ce3000000000000000000000000000000000000000000000000000000008152600401610e7b9190611c79565b60405180910390fd5b7f360894a13ba1a3210667c828492db98dca3e2076cc3735a920a3ca505d382bbc60001b8114610eeb57806040517faa1d49a4000000000000000000000000000000000000000000000000000000008152600401610ee29190611bec565b60405180910390fd5b610ef58383611421565b505050565b7f000000000000000000000000000000000000000000000000000000000000000073ffffffffffffffffffffffffffffffffffffffff163073ffffffffffffffffffffffffffffffffffffffff1614610f7f576040517fe07c8dba00000000000000000000000000000000000000000000000000000000815260040160405180910390fd5b565b610f89611494565b73ffffffffffffffffffffffffffffffffffffffff16610fa761049d565b73ffffffffffffffffffffffffffffffffffffffff161461100657610fca611494565b6040517f118cdaa7000000000000000000000000000000000000000000000000000000008152600401610ffd9190611c79565b60405180910390fd5b565b60006110126110df565b905060008160000160009054906101000a900473ffffffffffffffffffffffffffffffffffffffff169050828260000160006101000a81548173ffffffffffffffffffffffffffffffffffffffff021916908373ffffffffffffffffffffffffffffffffffffffff1602179055508273ffffffffffffffffffffffffffffffffffffffff168173ffffffffffffffffffffffffffffffffffffffff167f8be0079c531659141344cd1fd0a4f28419497f9722a3daafe3b4186f6b6457e060405160405180910390a3505050565b60007f9016d09d72d40fdae2fd8ceac6b6234c7706214fd39c1cd1e609a0528c199300905090565b60008061111261149c565b90508091505090565b6111236114c7565b61112c81611507565b50565b6111376114c7565b61113f61158d565b565b600061114b6115ae565b9050600281600001540361118b576040517f3ee5aeb500000000000000000000000000000000000000000000000000000000815260040160405180910390fd5b6002816000018190555050565b60008060008085858101906111ad91906126f7565b935093509350935060018460ff16146111fb576040517f08c379a00000000000000000000000000000000000000000000000000000000081526004016111f2906127d0565b60405180910390fd5b600073ffffffffffffffffffffffffffffffffffffffff168273ffffffffffffffffffffffffffffffffffffffff160361126a576040517f08c379a00000000000000000000000000000000000000000000000000000000081526004016112619061283c565b60405180910390fd5b600081116112ad576040517f08c379a00000000000000000000000000000000000000000000000000000000081526004016112a4906128a8565b60405180910390fd5b60008273ffffffffffffffffffffffffffffffffffffffff16826040516112d3906128f9565b60006040518083038185875af1925050503d8060008114611310576040519150601f19603f3d011682016040523d82523d6000602084013e611315565b606091505b5050905080611359576040517f08c379a000000000000000000000000000000000000000000000000000000000815260040161135090612980565b60405180910390fd5b838373ffffffffffffffffffffffffffffffffffffffff167fa0b079e995629885886c0da2a052940d2965f7d25bc48eef504d7f866641c4a4846040516113a091906129af565b60405180910390a350505050505050565b60006113bb6115ae565b90506001816000018190555050565b60006113f87f360894a13ba1a3210667c828492db98dca3e2076cc3735a920a3ca505d382bbc60001b6115d6565b60000160009054906101000a900473ffffffffffffffffffffffffffffffffffffffff16905090565b61142a826115e0565b8173ffffffffffffffffffffffffffffffffffffffff167fbc7cd75a20ee27fd9adebab32041f755214dbc6bffa90cc0225b39da2e5c2d3b60405160405180910390a26000815111156114875761148182826116ad565b50611490565b61148f611731565b5b5050565b600033905090565b60007ff0c57e16840df040f15088dc2f81fe391c3923bec73e23a9662efc9c229c6a0060001b905090565b6114cf61176e565b611505576040517fd7e6bcf800000000000000000000000000000000000000000000000000000000815260040160405180910390fd5b565b61150f6114c7565b600073ffffffffffffffffffffffffffffffffffffffff168173ffffffffffffffffffffffffffffffffffffffff16036115815760006040517f1e4fbdf70000000000000000000000000000000000000000000000000000000081526004016115789190611c79565b60405180910390fd5b61158a81611008565b50565b6115956114c7565b600061159f6115ae565b90506001816000018190555050565b60007f9b779b17422d0df92223018b32b4d1fa46e071723d6817e2486d003becc55f00905090565b6000819050919050565b60008173ffffffffffffffffffffffffffffffffffffffff163b0361163c57806040517f4c9c8ce30000000000000000000000000000000000000000000000000000000081526004016116339190611c79565b60405180910390fd5b806116697f360894a13ba1a3210667c828492db98dca3e2076cc3735a920a3ca505d382bbc60001b6115d6565b60000160006101000a81548173ffffffffffffffffffffffffffffffffffffffff021916908373ffffffffffffffffffffffffffffffffffffffff16021790555050565b60606000808473ffffffffffffffffffffffffffffffffffffffff16846040516116d79190612a06565b600060405180830381855af49150503d8060008114611712576040519150601f19603f3d011682016040523d82523d6000602084013e611717565b606091505b509150915061172785838361178e565b9250505092915050565b600034111561176c576040517fb398979f00000000000000000000000000000000000000000000000000000000815260040160405180910390fd5b565b6000611778611107565b60000160089054906101000a900460ff16905090565b6060826117a35761179e8261181d565b611815565b600082511480156117cb575060008473ffffffffffffffffffffffffffffffffffffffff163b145b1561180d57836040517f9996b3150000000000000000000000000000000000000000000000000000000081526004016118049190611c79565b60405180910390fd5b819050611816565b5b9392505050565b60008151111561182f57805160208201fd5b6040517fd6bda27500000000000000000000000000000000000000000000000000000000815260040160405180910390fd5b6000604051905090565b600080fd5b600080fd5b600061ffff82169050919050565b61188c81611875565b811461189757600080fd5b50565b6000813590506118a981611883565b92915050565b6000819050919050565b6118c2816118af565b81146118cd57600080fd5b50565b6000813590506118df816118b9565b92915050565b600080604083850312156118fc576118fb61186b565b5b600061190a8582860161189a565b925050602061191b858286016118d0565b9150509250929050565b600067ffffffffffffffff82169050919050565b61194281611925565b82525050565b600060208201905061195d6000830184611939565b92915050565b600073ffffffffffffffffffffffffffffffffffffffff82169050919050565b6000819050919050565b60006119a86119a361199e84611963565b611983565b611963565b9050919050565b60006119ba8261198d565b9050919050565b60006119cc826119af565b9050919050565b6119dc816119c1565b82525050565b60006020820190506119f760008301846119d3565b92915050565b6000611a0882611963565b9050919050565b611a18816119fd565b8114611a2357600080fd5b50565b600081359050611a3581611a0f565b92915050565b600080fd5b600080fd5b6000601f19601f8301169050919050565b7f4e487b7100000000000000000000000000000000000000000000000000000000600052604160045260246000fd5b611a8e82611a45565b810181811067ffffffffffffffff82111715611aad57611aac611a56565b5b80604052505050565b6000611ac0611861565b9050611acc8282611a85565b919050565b600067ffffffffffffffff821115611aec57611aeb611a56565b5b611af582611a45565b9050602081019050919050565b82818337600083830152505050565b6000611b24611b1f84611ad1565b611ab6565b905082815260208101848484011115611b4057611b3f611a40565b5b611b4b848285611b02565b509392505050565b600082601f830112611b6857611b67611a3b565b5b8135611b78848260208601611b11565b91505092915050565b60008060408385031215611b9857611b9761186b565b5b6000611ba685828601611a26565b925050602083013567ffffffffffffffff811115611bc757611bc6611870565b5b611bd385828601611b53565b9150509250929050565b611be6816118af565b82525050565b6000602082019050611c016000830184611bdd565b92915050565b600060208284031215611c1d57611c1c61186b565b5b6000611c2b848285016118d0565b91505092915050565b60008115159050919050565b611c4981611c34565b82525050565b6000602082019050611c646000830184611c40565b92915050565b611c73816119fd565b82525050565b6000602082019050611c8e6000830184611c6a565b92915050565b611c9d81611875565b82525050565b6000602082019050611cb86000830184611c94565b92915050565b600080600060608486031215611cd757611cd661186b565b5b6000611ce58682870161189a565b9350506020611cf686828701611a26565b9250506040611d0786828701611a26565b9150509250925092565b600081519050919050565b600082825260208201905092915050565b60005b83811015611d4b578082015181840152602081019050611d30565b60008484015250505050565b6000611d6282611d11565b611d6c8185611d1c565b9350611d7c818560208601611d2d565b611d8581611a45565b840191505092915050565b60006020820190508181036000830152611daa8184611d57565b905092915050565b600060ff82169050919050565b611dc881611db2565b8114611dd357600080fd5b50565b600081359050611de581611dbf565b92915050565b600063ffffffff82169050919050565b611e0481611deb565b8114611e0f57600080fd5b50565b600081359050611e2181611dfb565b92915050565b611e3081611925565b8114611e3b57600080fd5b50565b600081359050611e4d81611e27565b92915050565b600080fd5b600080fd5b60008083601f840112611e7357611e72611a3b565b5b8235905067ffffffffffffffff811115611e9057611e8f611e53565b5b602083019150836001820283011115611eac57611eab611e58565b5b9250929050565b60008083601f840112611ec957611ec8611a3b565b5b8235905067ffffffffffffffff811115611ee657611ee5611e53565b5b602083019150836020820283011115611f0257611f01611e58565b5b9250929050565b600080600080600080600080600060e08a8c031215611f2b57611f2a61186b565b5b6000611f398c828d01611dd6565b9950506020611f4a8c828d01611e12565b9850506040611f5b8c828d0161189a565b9750506060611f6c8c828d016118d0565b9650506080611f7d8c828d01611e3e565b95505060a08a013567ffffffffffffffff811115611f9e57611f9d611870565b5b611faa8c828d01611e5d565b945094505060c08a013567ffffffffffffffff811115611fcd57611fcc611870565b5b611fd98c828d01611eb3565b92509250509295985092959850929598565b6000602082840312156120015761200061186b565b5b600061200f84828501611a26565b91505092915050565b6000612023826119af565b9050919050565b61203381612018565b82525050565b600060208201905061204e600083018461202a565b92915050565b7f4272696467654d616e616765723a20696e76616c696420636861696e49640000600082015250565b600061208a601e83611d1c565b915061209582612054565b602082019050919050565b600060208201905081810360008301526120b98161207d565b9050919050565b7f4272696467654d616e616765723a207a65726f20726567697374727900000000600082015250565b60006120f6601c83611d1c565b9150612101826120c0565b602082019050919050565b60006020820190508181036000830152612125816120e9565b9050919050565b7f4272696467654d616e616765723a207a65726f20766572696669657200000000600082015250565b6000612162601c83611d1c565b915061216d8261212c565b602082019050919050565b6000602082019050818103600083015261219181612155565b9050919050565b6000819050919050565b60006121bd6121b86121b384612198565b611983565b611925565b9050919050565b6121cd816121a2565b82525050565b60006020820190506121e860008301846121c4565b92915050565b6121f781611db2565b82525050565b61220681611deb565b82525050565b600082825260208201905092915050565b6000612229838561220c565b9350612236838584611b02565b61223f83611a45565b840190509392505050565b600060c08201905061225f600083018a6121ee565b61226c60208301896121fd565b6122796040830188611c94565b6122866060830187611bdd565b6122936080830186611939565b81810360a08301526122a681848661221d565b905098975050505050505050565b6000815190506122c3816118b9565b92915050565b6000602082840312156122df576122de61186b565b5b60006122ed848285016122b4565b91505092915050565b7f4272696467654d616e616765723a2056414120616c726561647920636f6e737560008201527f6d65640000000000000000000000000000000000000000000000000000000000602082015250565b6000612352602383611d1c565b915061235d826122f6565b604082019050919050565b6000602082019050818103600083015261238181612345565b9050919050565b7f4272696467654d616e616765723a2073657175656e636520746f6f206c6f7700600082015250565b60006123be601f83611d1c565b91506123c982612388565b602082019050919050565b600060208201905081810360008301526123ed816123b1565b9050919050565b600082825260208201905092915050565b6000819050919050565b600082825260208201905092915050565b600061242c838561240f565b9350612439838584611b02565b61244283611a45565b840190509392505050565b600061245a848484612420565b90509392505050565b600080fd5b600080fd5b600080fd5b6000808335600160200384360303811261248f5761248e61246d565b5b83810192508235915060208301925067ffffffffffffffff8211156124b7576124b6612463565b5b6001820236038313156124cd576124cc612468565b5b509250929050565b6000602082019050919050565b60006124ee83856123f4565b93508360208402850161250084612405565b8060005b8781101561254657848403895261251b8284612472565b61252686828461244d565b9550612531846124d5565b935060208b019a505050600181019050612504565b50829750879450505050509392505050565b600060608201905061256d60008301876121fd565b61257a6020830186611bdd565b818103604083015261258d8184866124e2565b905095945050505050565b6125a181611c34565b81146125ac57600080fd5b50565b6000815190506125be81612598565b92915050565b6000602082840312156125da576125d961186b565b5b60006125e8848285016125af565b91505092915050565b7f4272696467654d616e616765723a20496e76616c696420677561726469616e2060008201527f7369676e61747572657300000000000000000000000000000000000000000000602082015250565b600061264d602a83611d1c565b9150612658826125f1565b604082019050919050565b6000602082019050818103600083015261267c81612640565b9050919050565b600061268e82611963565b9050919050565b61269e81612683565b81146126a957600080fd5b50565b6000813590506126bb81612695565b92915050565b6000819050919050565b6126d4816126c1565b81146126df57600080fd5b50565b6000813590506126f1816126cb565b92915050565b600080600080608085870312156127115761271061186b565b5b600061271f87828801611dd6565b9450506020612730878288016118d0565b9350506040612741878288016126ac565b9250506060612752878288016126e2565b91505092959194509250565b7f4272696467654d616e616765723a20556e6b6e6f776e207061796c6f6164207460008201527f7970650000000000000000000000000000000000000000000000000000000000602082015250565b60006127ba602383611d1c565b91506127c58261275e565b604082019050919050565b600060208201905081810360008301526127e9816127ad565b9050919050565b7f4272696467654d616e616765723a207a65726f20726563697069656e74000000600082015250565b6000612826601d83611d1c565b9150612831826127f0565b602082019050919050565b6000602082019050818103600083015261285581612819565b9050919050565b7f4272696467654d616e616765723a207a65726f20616d6f756e74000000000000600082015250565b6000612892601a83611d1c565b915061289d8261285c565b602082019050919050565b600060208201905081810360008301526128c181612885565b9050919050565b600081905092915050565b50565b60006128e36000836128c8565b91506128ee826128d3565b600082019050919050565b6000612904826128d6565b9150819050919050565b7f4272696467654d616e616765723a20455448207472616e73666572206661696c60008201527f6564000000000000000000000000000000000000000000000000000000000000602082015250565b600061296a602283611d1c565b91506129758261290e565b604082019050919050565b600060208201905081810360008301526129998161295d565b9050919050565b6129a9816126c1565b82525050565b60006020820190506129c460008301846129a0565b92915050565b600081519050919050565b60006129e0826129ca565b6129ea81856128c8565b93506129fa818560208601611d2d565b80840191505092915050565b6000612a1282846129d5565b91508190509291505056fea26469706673582212201cfa1613eb011e99872bf30a49c41e2df60af8bfd2a1dd61d01c2a1216b6776b64736f6c634300081c0033",
  "linkReferences": {},
  "deployedLinkReferences": {}
}