{
  "_format": "hh-sol-artifact-1",
  "contractName": "BridgeManager",
  "sourceName": "contracts/BridgeManager.sol",
  "abi": [
    {
      "inputs": [
        {
          "internalType": "address",
          "name": "target",
          "type": "address"
        }
      ],
      "name": "AddressEmptyCode",
      "type": "error"
    },
    {
      "inputs": [
        {
          "internalType": "address",
          "name": "implementation",
          "type": "address"
        }
      ],
      "name": "ERC1967InvalidImplementation",
      "type": "error"
    },
    {
      "inputs": [],
      "name": "ERC1967NonPayable",
      "type": "error"
    },
    {
      "inputs": [],
      "name": "FailedCall",
      "type": "error"
    },
    {
      "inputs": [],
      "name": "InvalidInitialization",
      "type": "error"
    },
    {
      "inputs": [],
      "name": "NotInitializing",
      "type": "error"
    },
    {
      "inputs": [
        {
          "internalType": "address",
          "name": "owner",
          "type": "address"
        }
      ],
      "name": "OwnableInvalidOwner",
      "type": "error"
    },
    {
      "inputs": [
        {
          "internalType": "address",
          "name": "account",
          "type": "address"
        }
      ],
      "name": "OwnableUnauthorizedAccount",
      "type": "error"
    },
    {
      "inputs": [],
      "name": "UUPSUnauthorizedCallContext",
      "type": "error"
    },
    {
      "inputs": [
        {
          "internalType": "bytes32",
          "name": "slot",
          "type": "bytes32"
        }
      ],
      "name": "UUPSUnsupportedProxiableUUID",
      "type": "error"
    },
    {
      "anonymous": false,
      "inputs": [
        {
          "indexed": false,
          "internalType": "uint64",
          "name": "version",
          "type": "uint64"
        }
      ],
      "name": "Initialized",
      "type": "event"
    },
    {
      "anonymous": false,
      "inputs": [
        {
          "indexed": true,
          "internalType": "address",
          "name": "previousOwner",
          "type": "address"
        },
        {
          "indexed": true,
          "internalType": "address",
          "name": "newOwner",
          "type": "address"
        }
      ],
      "name": "OwnershipTransferred",
      "type": "event"
    },
    {
      "anonymous": false,
      "inputs": [
        {
          "indexed": true,
          "internalType": "bytes32",
          "name": "orderId",
          "type": "bytes32"
        },
        {
          "indexed": true,
          "internalType": "address",
          "name": "recipient",
          "type": "address"
        },
        {
          "indexed": false,
          "internalType": "uint256",
          "name": "amount",
          "type": "uint256"
        }
      ],
      "name": "UnlockExecuted",
      "type": "event"
    },
    {
      "anonymous": false,
      "inputs": [
        {
          "indexed": true,
          "internalType": "address",
          "name": "implementation",
          "type": "address"
        }
      ],
      "name": "Upgraded",
      "type": "event"
    },
    {
      "inputs": [],
      "name": "UPGRADE_INTERFACE_VERSION",
      "outputs": [
        {
          "internalType": "string",
          "name": "",
          "type": "string"
        }
      ],
      "stateMutability": "view",
      "type": "function"
    },
    {
      "inputs": [
        {
          "internalType": "bytes32",
          "name": "orderId",
          "type": "bytes32"
        },
        {
          "internalType": "address",
          "name": "recipient",
          "type": "address"
        },
        {
          "internalType": "uint256",
          "name": "amount",
          "type": "uint256"
        },
        {
          "internalType": "uint256",
          "name": "nonce",
          "type": "uint256"
        },
        {
          "internalType": "uint256",
          "name": "timestamp",
          "type": "uint256"
        },
        {
          "internalType": "bytes[]",
          "name": "signatures",
          "type": "bytes[]"
        }
      ],
      "name": "executeUnlock",
      "outputs": [],
      "stateMutability": "nonpayable",
      "type": "function"
    },
    {
      "inputs": [
        {
          "internalType": "bytes32",
          "name": "",
          "type": "bytes32"
        }
      ],
      "name": "executedOrders",
      "outputs": [
        {
          "internalType": "bool",
          "name": "",
          "type": "bool"
        }
      ],
      "stateMutability": "view",
      "type": "function"
    },
    {
      "inputs": [
        {
          "internalType": "address",
          "name": "_validatorRegistry",
          "type": "address"
        },
        {
          "internalType": "address",
          "name": "_verifier",
          "type": "address"
        },
        {
          "internalType": "uint256",
          "name": "_messageExpiry",
          "type": "uint256"
        }
      ],
      "name": "initialize",
      "outputs": [],
      "stateMutability": "nonpayable",
      "type": "function"
    },
    {
      "inputs": [],
      "name": "messageExpiry",
      "outputs": [
        {
          "internalType": "uint256",
          "name": "",
          "type": "uint256"
        }
      ],
      "stateMutability": "view",
      "type": "function"
    },
    {
      "inputs": [],
      "name": "owner",
      "outputs": [
        {
          "internalType": "address",
          "name": "",
          "type": "address"
        }
      ],
      "stateMutability": "view",
      "type": "function"
    },
    {
      "inputs": [],
      "name": "proxiableUUID",
      "outputs": [
        {
          "internalType": "bytes32",
          "name": "",
          "type": "bytes32"
        }
      ],
      "stateMutability": "view",
      "type": "function"
    },
    {
      "inputs": [],
      "name": "renounceOwnership",
      "outputs": [],
      "stateMutability": "nonpayable",
      "type": "function"
    },
    {
      "inputs": [
        {
          "internalType": "address",
          "name": "newOwner",
          "type": "address"
        }
      ],
      "name": "transferOwnership",
      "outputs": [],
      "stateMutability": "nonpayable",
      "type": "function"
    },
    {
      "inputs": [
        {
          "internalType": "address",
          "name": "newImplementation",
          "type": "address"
        },
        {
          "internalType": "bytes",
          "name": "data",
          "type": "bytes"
        }
      ],
      "name": "upgradeToAndCall",
      "outputs": [],
      "stateMutability": "payable",
      "type": "function"
    },
    {
      "inputs": [],
      "name": "validatorRegistry",
      "outputs": [
        {
          "internalType": "contract ValidatorRegistry",
          "name": "",
          "type": "address"
        }
      ],
      "stateMutability": "view",
      "type": "function"
    },
    {
      "inputs": [],
      "name": "verifier",
      "outputs": [
        {
          "internalType": "contract MessageVerifier",
          "name": "",
          "type": "address"
        }
      ],
      "stateMutability": "view",
      "type": "function"
    },
    {
      "stateMutability": "payable",
      "type": "receive"
    }
  ],
  "bytecode": "0x60a06040523073ffffffffffffffffffffffffffffffffffffffff1660809073ffffffffffffffffffffffffffffffffffffffff16815250348015604257600080fd5b506080516120c661006c60003960008181610ade01528181610b330152610cee01526120c66000f3fe6080604052600436106100ab5760003560e01c8063715018a611610064578063715018a6146101ba5780638da5cb5b146101d15780638ead5ac8146101fc578063ad3cb1cc14610225578063f2fde38b14610250578063f376ebbb14610279576100b2565b80631794bb3c146100b75780632b7ac3f3146100e05780633740bf521461010b5780634f1ef2861461014857806352d1902d146101645780635c96f9b51461018f576100b2565b366100b257005b600080fd5b3480156100c357600080fd5b506100de60048036038101906100d99190611425565b6102a4565b005b3480156100ec57600080fd5b506100f56104bd565b60405161010291906114d7565b60405180910390f35b34801561011757600080fd5b50610132600480360381019061012d9190611528565b6104e3565b60405161013f9190611570565b60405180910390f35b610162600480360381019061015d91906116d1565b610503565b005b34801561017057600080fd5b50610179610522565b604051610186919061173c565b60405180910390f35b34801561019b57600080fd5b506101a4610555565b6040516101b19190611766565b60405180910390f35b3480156101c657600080fd5b506101cf61055b565b005b3480156101dd57600080fd5b506101e661056f565b6040516101f39190611790565b60405180910390f35b34801561020857600080fd5b50610223600480360381019061021e919061180b565b6105a7565b005b34801561023157600080fd5b5061023a6109d1565b6040516102479190611939565b60405180910390f35b34801561025c57600080fd5b506102776004803603810190610272919061195b565b610a0a565b005b34801561028557600080fd5b5061028e610a90565b60405161029b91906119a9565b60405180910390f35b60006102ae610ab4565b905060008160000160089054906101000a900460ff1615905060008260000160009054906101000a900467ffffffffffffffff1690506000808267ffffffffffffffff161480156102fc5750825b9050600060018367ffffffffffffffff16148015610331575060003073ffffffffffffffffffffffffffffffffffffffff163b145b90508115801561033f575080155b15610376576040517ff92ee8a900000000000000000000000000000000000000000000000000000000815260040160405180910390fd5b60018560000160006101000a81548167ffffffffffffffff021916908367ffffffffffffffff16021790555083156103c65760018560000160086101000a81548160ff0219169083151502179055505b876000806101000a81548173ffffffffffffffffffffffffffffffffffffffff021916908373ffffffffffffffffffffffffffffffffffffffff16021790555086600160006101000a81548173ffffffffffffffffffffffffffffffffffffffff021916908373ffffffffffffffffffffffffffffffffffffffff1602179055508560038190555061045733610ac8565b83156104b35760008560000160086101000a81548160ff0219169083151502179055507fc7f505b2f371ae2175ee4913f4499e1f2633a7b5936321eed1cdaeb6115181d260016040516104aa9190611a13565b60405180910390a15b5050505050505050565b600160009054906101000a900473ffffffffffffffffffffffffffffffffffffffff1681565b60026020528060005260406000206000915054906101000a900460ff1681565b61050b610adc565b61051482610bc2565b61051e8282610bcd565b5050565b600061052c610cec565b7f360894a13ba1a3210667c828492db98dca3e2076cc3735a920a3ca505d382bbc60001b905090565b60035481565b610563610d73565b61056d6000610dfa565b565b60008061057a610ed1565b90508060000160009054906101000a900473ffffffffffffffffffffffffffffffffffffffff1691505090565b600073ffffffffffffffffffffffffffffffffffffffff168673ffffffffffffffffffffffffffffffffffffffff1603610616576040517f08c379a000000000000000000000000000000000000000000000000000000000815260040161060d90611a7a565b60405180910390fd5b60008511610659576040517f08c379a000000000000000000000000000000000000000000000000000000000815260040161065090611ae6565b60405180910390fd5b6002600088815260200190815260200160002060009054906101000a900460ff16156106ba576040517f08c379a00000000000000000000000000000000000000000000000000000000081526004016106b190611b52565b60405180910390fd5b42600354846106c99190611ba1565b101561070a576040517f08c379a000000000000000000000000000000000000000000000000000000000815260040161070190611c21565b60405180910390fd5b6000600160009054906101000a900473ffffffffffffffffffffffffffffffffffffffff1673ffffffffffffffffffffffffffffffffffffffff16632bdaeb3b4689898c8a8a6040518763ffffffff1660e01b815260040161077196959493929190611c41565b602060405180830381865afa15801561078e573d6000803e3d6000fd5b505050506040513d601f19601f820116820180604052508101906107b29190611cb7565b905060006107bf82610ef9565b905060008054906101000a900473ffffffffffffffffffffffffffffffffffffffff1673ffffffffffffffffffffffffffffffffffffffff16630a5c54b38286866040518463ffffffff1660e01b815260040161081e93929190611e48565b602060405180830381865afa15801561083b573d6000803e3d6000fd5b505050506040513d601f19601f8201168201806040525081019061085f9190611ea6565b61089e576040517f08c379a000000000000000000000000000000000000000000000000000000000815260040161089590611f45565b60405180910390fd5b6001600260008b815260200190815260200160002060006101000a81548160ff02191690831515021790555060008873ffffffffffffffffffffffffffffffffffffffff16886040516108f090611f96565b60006040518083038185875af1925050503d806000811461092d576040519150601f19603f3d011682016040523d82523d6000602084013e610932565b606091505b5050905080610976576040517f08c379a000000000000000000000000000000000000000000000000000000000815260040161096d9061201d565b60405180910390fd5b8873ffffffffffffffffffffffffffffffffffffffff168a7f41f97fc03cf7f2c1829da0c368b4c948bb17a3c760dd35510feed443faaa70408a6040516109bd9190611766565b60405180910390a350505050505050505050565b6040518060400160405280600581526020017f352e302e3000000000000000000000000000000000000000000000000000000081525081565b610a12610d73565b600073ffffffffffffffffffffffffffffffffffffffff168173ffffffffffffffffffffffffffffffffffffffff1603610a845760006040517f1e4fbdf7000000000000000000000000000000000000000000000000000000008152600401610a7b9190611790565b60405180910390fd5b610a8d81610dfa565b50565b60008054906101000a900473ffffffffffffffffffffffffffffffffffffffff1681565b600080610abf610f2f565b90508091505090565b610ad0610f5a565b610ad981610f9a565b50565b7f000000000000000000000000000000000000000000000000000000000000000073ffffffffffffffffffffffffffffffffffffffff163073ffffffffffffffffffffffffffffffffffffffff161480610b8957507f000000000000000000000000000000000000000000000000000000000000000073ffffffffffffffffffffffffffffffffffffffff16610b70611020565b73ffffffffffffffffffffffffffffffffffffffff1614155b15610bc0576040517fe07c8dba00000000000000000000000000000000000000000000000000000000815260040160405180910390fd5b565b610bca610d73565b50565b8173ffffffffffffffffffffffffffffffffffffffff166352d1902d6040518163ffffffff1660e01b8152600401602060405180830381865afa925050508015610c3557506040513d601f19601f82011682018060405250810190610c329190611cb7565b60015b610c7657816040517f4c9c8ce3000000000000000000000000000000000000000000000000000000008152600401610c6d9190611790565b60405180910390fd5b7f360894a13ba1a3210667c828492db98dca3e2076cc3735a920a3ca505d382bbc60001b8114610cdd57806040517faa1d49a4000000000000000000000000000000000000000000000000000000008152600401610cd4919061173c565b60405180910390fd5b610ce78383611077565b505050565b7f000000000000000000000000000000000000000000000000000000000000000073ffffffffffffffffffffffffffffffffffffffff163073ffffffffffffffffffffffffffffffffffffffff1614610d71576040517fe07c8dba00000000000000000000000000000000000000000000000000000000815260040160405180910390fd5b565b610d7b6110ea565b73ffffffffffffffffffffffffffffffffffffffff16610d9961056f565b73ffffffffffffffffffffffffffffffffffffffff1614610df857610dbc6110ea565b6040517f118cdaa7000000000000000000000000000000000000000000000000000000008152600401610def9190611790565b60405180910390fd5b565b6000610e04610ed1565b905060008160000160009054906101000a900473ffffffffffffffffffffffffffffffffffffffff169050828260000160006101000a81548173ffffffffffffffffffffffffffffffffffffffff021916908373ffffffffffffffffffffffffffffffffffffffff1602179055508273ffffffffffffffffffffffffffffffffffffffff168173ffffffffffffffffffffffffffffffffffffffff167f8be0079c531659141344cd1fd0a4f28419497f9722a3daafe3b4186f6b6457e060405160405180910390a3505050565b60007f9016d09d72d40fdae2fd8ceac6b6234c7706214fd39c1cd1e609a0528c199300905090565b60007f19457468657265756d205369676e6564204d6573736167653a0a33320000000060005281601c52603c6000209050919050565b60007ff0c57e16840df040f15088dc2f81fe391c3923bec73e23a9662efc9c229c6a0060001b905090565b610f626110f2565b610f98576040517fd7e6bcf800000000000000000000000000000000000000000000000000000000815260040160405180910390fd5b565b610fa2610f5a565b600073ffffffffffffffffffffffffffffffffffffffff168173ffffffffffffffffffffffffffffffffffffffff16036110145760006040517f1e4fbdf700000000000000000000000000000000000000000000000000000000815260040161100b9190611790565b60405180910390fd5b61101d81610dfa565b50565b600061104e7f360894a13ba1a3210667c828492db98dca3e2076cc3735a920a3ca505d382bbc60001b611112565b60000160009054906101000a900473ffffffffffffffffffffffffffffffffffffffff16905090565b6110808261111c565b8173ffffffffffffffffffffffffffffffffffffffff167fbc7cd75a20ee27fd9adebab32041f755214dbc6bffa90cc0225b39da2e5c2d3b60405160405180910390a26000815111156110dd576110d782826111e9565b506110e6565b6110e561126d565b5b5050565b600033905090565b60006110fc610ab4565b60000160089054906101000a900460ff16905090565b6000819050919050565b60008173ffffffffffffffffffffffffffffffffffffffff163b0361117857806040517f4c9c8ce300000000000000000000000000000000000000000000000000000000815260040161116f9190611790565b60405180910390fd5b806111a57f360894a13ba1a3210667c828492db98dca3e2076cc3735a920a3ca505d382bbc60001b611112565b60000160006101000a81548173ffffffffffffffffffffffffffffffffffffffff021916908373ffffffffffffffffffffffffffffffffffffffff16021790555050565b60606000808473ffffffffffffffffffffffffffffffffffffffff16846040516112139190612079565b600060405180830381855af49150503d806000811461124e576040519150601f19603f3d011682016040523d82523d6000602084013e611253565b606091505b50915091506112638583836112aa565b9250505092915050565b60003411156112a8576040517fb398979f00000000000000000000000000000000000000000000000000000000815260040160405180910390fd5b565b6060826112bf576112ba82611339565b611331565b600082511480156112e7575060008473ffffffffffffffffffffffffffffffffffffffff163b145b1561132957836040517f9996b3150000000000000000000000000000000000000000000000000000000081526004016113209190611790565b60405180910390fd5b819050611332565b5b9392505050565b60008151111561134b57805160208201fd5b6040517fd6bda27500000000000000000000000000000000000000000000000000000000815260040160405180910390fd5b6000604051905090565b600080fd5b600080fd5b600073ffffffffffffffffffffffffffffffffffffffff82169050919050565b60006113bc82611391565b9050919050565b6113cc816113b1565b81146113d757600080fd5b50565b6000813590506113e9816113c3565b92915050565b6000819050919050565b611402816113ef565b811461140d57600080fd5b50565b60008135905061141f816113f9565b92915050565b60008060006060848603121561143e5761143d611387565b5b600061144c868287016113da565b935050602061145d868287016113da565b925050604061146e86828701611410565b9150509250925092565b6000819050919050565b600061149d61149861149384611391565b611478565b611391565b9050919050565b60006114af82611482565b9050919050565b60006114c1826114a4565b9050919050565b6114d1816114b6565b82525050565b60006020820190506114ec60008301846114c8565b92915050565b6000819050919050565b611505816114f2565b811461151057600080fd5b50565b600081359050611522816114fc565b92915050565b60006020828403121561153e5761153d611387565b5b600061154c84828501611513565b91505092915050565b60008115159050919050565b61156a81611555565b82525050565b60006020820190506115856000830184611561565b92915050565b600080fd5b600080fd5b6000601f19601f8301169050919050565b7f4e487b7100000000000000000000000000000000000000000000000000000000600052604160045260246000fd5b6115de82611595565b810181811067ffffffffffffffff821117156115fd576115fc6115a6565b5b80604052505050565b600061161061137d565b905061161c82826115d5565b919050565b600067ffffffffffffffff82111561163c5761163b6115a6565b5b61164582611595565b9050602081019050919050565b82818337600083830152505050565b600061167461166f84611621565b611606565b9050828152602081018484840111156116905761168f611590565b5b61169b848285611652565b509392505050565b600082601f8301126116b8576116b761158b565b5b81356116c8848260208601611661565b91505092915050565b600080604083850312156116e8576116e7611387565b5b60006116f6858286016113da565b925050602083013567ffffffffffffffff8111156117175761171661138c565b5b611723858286016116a3565b9150509250929050565b611736816114f2565b82525050565b6000602082019050611751600083018461172d565b92915050565b611760816113ef565b82525050565b600060208201905061177b6000830184611757565b92915050565b61178a816113b1565b82525050565b60006020820190506117a56000830184611781565b92915050565b600080fd5b600080fd5b60008083601f8401126117cb576117ca61158b565b5b8235905067ffffffffffffffff8111156117e8576117e76117ab565b5b602083019150836020820283011115611804576118036117b0565b5b9250929050565b600080600080600080600060c0888a03121561182a57611829611387565b5b60006118388a828b01611513565b97505060206118498a828b016113da565b965050604061185a8a828b01611410565b955050606061186b8a828b01611410565b945050608061187c8a828b01611410565b93505060a088013567ffffffffffffffff81111561189d5761189c61138c565b5b6118a98a828b016117b5565b925092505092959891949750929550565b600081519050919050565b600082825260208201905092915050565b60005b838110156118f45780820151818401526020810190506118d9565b60008484015250505050565b600061190b826118ba565b61191581856118c5565b93506119258185602086016118d6565b61192e81611595565b840191505092915050565b600060208201905081810360008301526119538184611900565b905092915050565b60006020828403121561197157611970611387565b5b600061197f848285016113da565b91505092915050565b6000611993826114a4565b9050919050565b6119a381611988565b82525050565b60006020820190506119be600083018461199a565b92915050565b6000819050919050565b600067ffffffffffffffff82169050919050565b60006119fd6119f86119f3846119c4565b611478565b6119ce565b9050919050565b611a0d816119e2565b82525050565b6000602082019050611a286000830184611a04565b92915050565b7f4272696467654d616e616765723a207a65726f20726563697069656e74000000600082015250565b6000611a64601d836118c5565b9150611a6f82611a2e565b602082019050919050565b60006020820190508181036000830152611a9381611a57565b9050919050565b7f4272696467654d616e616765723a207a65726f20616d6f756e74000000000000600082015250565b6000611ad0601a836118c5565b9150611adb82611a9a565b602082019050919050565b60006020820190508181036000830152611aff81611ac3565b9050919050565b7f4272696467654d616e616765723a20416c726561647920657865637574656400600082015250565b6000611b3c601f836118c5565b9150611b4782611b06565b602082019050919050565b60006020820190508181036000830152611b6b81611b2f565b9050919050565b7f4e487b7100000000000000000000000000000000000000000000000000000000600052601160045260246000fd5b6000611bac826113ef565b9150611bb7836113ef565b9250828201905080821115611bcf57611bce611b72565b5b92915050565b7f4272696467654d616e616765723a2045787069726564206d6573736167650000600082015250565b6000611c0b601e836118c5565b9150611c1682611bd5565b602082019050919050565b60006020820190508181036000830152611c3a81611bfe565b9050919050565b600060c082019050611c566000830189611757565b611c636020830188611781565b611c706040830187611757565b611c7d606083018661172d565b611c8a6080830185611757565b611c9760a0830184611757565b979650505050505050565b600081519050611cb1816114fc565b92915050565b600060208284031215611ccd57611ccc611387565b5b6000611cdb84828501611ca2565b91505092915050565b600082825260208201905092915050565b6000819050919050565b600082825260208201905092915050565b6000611d1c8385611cff565b9350611d29838584611652565b611d3283611595565b840190509392505050565b6000611d4a848484611d10565b90509392505050565b600080fd5b600080fd5b600080fd5b60008083356001602003843603038112611d7f57611d7e611d5d565b5b83810192508235915060208301925067ffffffffffffffff821115611da757611da6611d53565b5b600182023603831315611dbd57611dbc611d58565b5b509250929050565b6000602082019050919050565b6000611dde8385611ce4565b935083602084028501611df084611cf5565b8060005b87811015611e36578484038952611e0b8284611d62565b611e16868284611d3d565b9550611e2184611dc5565b935060208b019a505050600181019050611df4565b50829750879450505050509392505050565b6000604082019050611e5d600083018661172d565b8181036020830152611e70818486611dd2565b9050949350505050565b611e8381611555565b8114611e8e57600080fd5b50565b600081519050611ea081611e7a565b92915050565b600060208284031215611ebc57611ebb611387565b5b6000611eca84828501611e91565b91505092915050565b7f4272696467654d616e616765723a20496e76616c69642076616c696461746f7260008201527f207369676e617475726573000000000000000000000000000000000000000000602082015250565b6000611f2f602b836118c5565b9150611f3a82611ed3565b604082019050919050565b60006020820190508181036000830152611f5e81611f22565b9050919050565b600081905092915050565b50565b6000611f80600083611f65565b9150611f8b82611f70565b600082019050919050565b6000611fa182611f73565b9150819050919050565b7f4272696467654d616e616765723a20455448207472616e73666572206661696c60008201527f6564000000000000000000000000000000000000000000000000000000000000602082015250565b60006120076022836118c5565b915061201282611fab565b604082019050919050565b6000602082019050818103600083015261203681611ffa565b9050919050565b600081519050919050565b60006120538261203d565b61205d8185611f65565b935061206d8185602086016118d6565b80840191505092915050565b60006120858284612048565b91508190509291505056fea2646970667358221220b822ecf2d58ef48b7cb510e3ceb4748d01b6bbe54c8f412d52ef49fe5b905a4b64736f6c634300081c0033",
  "linkReferences": {},
  "deployedLinkReferences": {}
}