{
  "_format": "hh-sol-artifact-1",
  "contractName": "ValidatorRegistry",
  "sourceName": "contracts/ValidatorRegistry.sol",
  "abi": [
    {
      "inputs": [],
      "name": "InvalidInitialization",
      "type": "error"
    },
    {
      "inputs": [],
      "name": "NotInitializing",
      "type": "error"
    },
    {
      "inputs": [
        {
          "internalType": "address",
          "name": "owner",
          "type": "address"
        }
      ],
      "name": "OwnableInvalidOwner",
      "type": "error"
    },
    {
      "inputs": [
        {
          "internalType": "address",
          "name": "account",
          "type": "address"
        }
      ],
      "name": "OwnableUnauthorizedAccount",
      "type": "error"
    },
    {
      "anonymous": false,
      "inputs": [
        {
          "indexed": true,
          "internalType": "uint32",
          "name": "index",
          "type": "uint32"
        },
        {
          "indexed": false,
          "internalType": "address[]",
          "name": "guardians",
          "type": "address[]"
        },
        {
          "indexed": false,
          "internalType": "uint256",
          "name": "expirationTime",
          "type": "uint256"
        }
      ],
      "name": "GuardianSetUpdated",
      "type": "event"
    },
    {
      "anonymous": false,
      "inputs": [
        {
          "indexed": false,
          "internalType": "uint64",
          "name": "version",
          "type": "uint64"
        }
      ],
      "name": "Initialized",
      "type": "event"
    },
    {
      "anonymous": false,
      "inputs": [
        {
          "indexed": true,
          "internalType": "address",
          "name": "previousOwner",
          "type": "address"
        },
        {
          "indexed": true,
          "internalType": "address",
          "name": "newOwner",
          "type": "address"
        }
      ],
      "name": "OwnershipTransferred",
      "type": "event"
    },
    {
      "anonymous": false,
      "inputs": [
        {
          "indexed": true,
          "internalType": "uint32",
          "name": "index",
          "type": "uint32"
        },
        {
          "indexed": false,
          "internalType": "uint256",
          "name": "threshold",
          "type": "uint256"
        }
      ],
      "name": "ThresholdUpdated",
      "type": "event"
    },
    {
      "inputs": [],
      "name": "currentSetIndex",
      "outputs": [
        {
          "internalType": "uint32",
          "name": "",
          "type": "uint32"
        }
      ],
      "stateMutability": "view",
      "type": "function"
    },
    {
      "inputs": [
        {
          "internalType": "uint32",
          "name": "setIndex",
          "type": "uint32"
        },
        {
          "internalType": "uint256",
          "name": "index",
          "type": "uint256"
        }
      ],
      "name": "getGuardian",
      "outputs": [
        {
          "internalType": "address",
          "name": "",
          "type": "address"
        }
      ],
      "stateMutability": "view",
      "type": "function"
    },
    {
      "inputs": [
        {
          "internalType": "uint32",
          "name": "setIndex",
          "type": "uint32"
        }
      ],
      "name": "guardianCount",
      "outputs": [
        {
          "internalType": "uint256",
          "name": "",
          "type": "uint256"
        }
      ],
      "stateMutability": "view",
      "type": "function"
    },
    {
      "inputs": [
        {
          "internalType": "uint32",
          "name": "",
          "type": "uint32"
        }
      ],
      "name": "guardianSets",
      "outputs": [
        {
          "internalType": "uint256",
          "name": "expirationTime",
          "type": "uint256"
        }
      ],
      "stateMutability": "view",
      "type": "function"
    },
    {
      "inputs": [
        {
          "internalType": "address[]",
          "name": "_guardians",
          "type": "address[]"
        },
        {
          "internalType": "uint256",
          "name": "_threshold",
          "type": "uint256"
        }
      ],
      "name": "initialize",
      "outputs": [],
      "stateMutability": "nonpayable",
      "type": "function"
    },
    {
      "inputs": [],
      "name": "owner",
      "outputs": [
        {
          "internalType": "address",
          "name": "",
          "type": "address"
        }
      ],
      "stateMutability": "view",
      "type": "function"
    },
    {
      "inputs": [],
      "name": "renounceOwnership",
      "outputs": [],
      "stateMutability": "nonpayable",
      "type": "function"
    },
    {
      "inputs": [
        {
          "internalType": "uint32",
          "name": "",
          "type": "uint32"
        }
      ],
      "name": "thresholds",
      "outputs": [
        {
          "internalType": "uint256",
          "name": "",
          "type": "uint256"
        }
      ],
      "stateMutability": "view",
      "type": "function"
    },
    {
      "inputs": [
        {
          "internalType": "address",
          "name": "newOwner",
          "type": "address"
        }
      ],
      "name": "transferOwnership",
      "outputs": [],
      "stateMutability": "nonpayable",
      "type": "function"
    },
    {
      "inputs": [
        {
          "internalType": "address[]",
          "name": "_guardians",
          "type": "address[]"
        },
        {
          "internalType": "uint256",
          "name": "_expirationTime",
          "type": "uint256"
        },
        {
          "internalType": "uint256",
          "name": "_threshold",
          "type": "uint256"
        }
      ],
      "name": "updateGuardianSet",
      "outputs": [],
      "stateMutability": "nonpayable",
      "type": "function"
    },
    {
      "inputs": [
        {
          "internalType": "uint32",
          "name": "setIndex",
          "type": "uint32"
        },
        {
          "internalType": "bytes32",
          "name": "hash",
          "type": "bytes32"
        },
        {
          "internalType": "bytes[]",
          "name": "signatures",
          "type": "bytes[]"
        }
      ],
      "name": "verifySignatures",
      "outputs": [
        {
          "internalType": "bool",
          "name": "",
          "type": "bool"
        }
      ],
      "stateMutability": "view",
      "type": "function"
    }
  ],
  "bytecode": "0x6080604052348015600f57600080fd5b5061205c8061001f6000396000f3fe608060405234801561001057600080fd5b50600436106100a95760003560e01c80638da5cb5b116100715780638da5cb5b1461016457806392f48f4314610182578063b6dcc2f8146101b2578063f2fde38b146101ce578063fd3a12f6146101ea578063ff9277571461021a576100a9565b80633870cd12146100ae5780633c880f02146100de57806360b5bb3f1461010e5780636163846e1461012a578063715018a61461015a575b600080fd5b6100c860048036038101906100c391906112c3565b610238565b6040516100d59190611309565b60405180910390f35b6100f860048036038101906100f391906112c3565b610256565b6040516101059190611309565b60405180910390f35b61012860048036038101906101239190611507565b610285565b005b610144600480360381019061013f91906112c3565b61064c565b6040516101519190611309565b60405180910390f35b610162610664565b005b61016c610678565b6040516101799190611572565b60405180910390f35b61019c6004803603810190610197919061158d565b6106b0565b6040516101a99190611572565b60405180910390f35b6101cc60048036038101906101c79190611628565b610780565b005b6101e860048036038101906101e3919061169c565b610a2c565b005b61020460048036038101906101ff9190611755565b610ab2565b60405161021191906117e4565b60405180910390f35b610222610d4f565b60405161022f919061180e565b60405180910390f35b60016020528060005260406000206000915090508060010154905081565b6000600160008363ffffffff1663ffffffff168152602001908152602001600020600001805490509050919050565b600061028f610d63565b905060008160000160089054906101000a900460ff1615905060008260000160009054906101000a900467ffffffffffffffff1690506000808267ffffffffffffffff161480156102dd5750825b9050600060018367ffffffffffffffff16148015610312575060003073ffffffffffffffffffffffffffffffffffffffff163b145b905081158015610320575080155b15610357576040517ff92ee8a900000000000000000000000000000000000000000000000000000000815260040160405180910390fd5b60018560000160006101000a81548167ffffffffffffffff021916908367ffffffffffffffff16021790555083156103a75760018560000160086101000a81548160ff0219169083151502179055505b6103b033610d77565b60008751116103f4576040517f08c379a00000000000000000000000000000000000000000000000000000000081526004016103eb906118ac565b60405180910390fd5b600086118015610405575086518611155b610444576040517f08c379a000000000000000000000000000000000000000000000000000000000815260040161043b9061193e565b60405180910390fd5b60008060006101000a81548163ffffffff021916908363ffffffff16021790555060405180604001604052808881526020017fffffffffffffffffffffffffffffffffffffffffffffffffffffffffffffffff815250600160008060009054906101000a900463ffffffff1663ffffffff1663ffffffff16815260200190815260200160002060008201518160000190805190602001906104e69291906111cc565b506020820151816001015590505085600260008060009054906101000a900463ffffffff1663ffffffff1663ffffffff1681526020019081526020016000208190555060008054906101000a900463ffffffff1663ffffffff167f040e08e85d8648f6568a266d340dfd142e0cdceb54d02a1160ac5c23383df881887fffffffffffffffffffffffffffffffffffffffffffffffffffffffffffffffff604051610591929190611a1c565b60405180910390a260008054906101000a900463ffffffff1663ffffffff167fbdc7025922b6ea646e078b86c4ac3627486c63baf73ccf68605856527a518ffb876040516105df9190611309565b60405180910390a283156106435760008560000160086101000a81548160ff0219169083151502179055507fc7f505b2f371ae2175ee4913f4499e1f2633a7b5936321eed1cdaeb6115181d2600160405161063a9190611aa5565b60405180910390a15b50505050505050565b60026020528060005260406000206000915090505481565b61066c610d8b565b6106766000610e12565b565b600080610683610ee9565b90508060000160009054906101000a900473ffffffffffffffffffffffffffffffffffffffff1691505090565b6000600160008463ffffffff1663ffffffff168152602001908152602001600020600001805490508210610719576040517f08c379a000000000000000000000000000000000000000000000000000000000815260040161071090611b32565b60405180910390fd5b600160008463ffffffff1663ffffffff168152602001908152602001600020600001828154811061074d5761074c611b52565b5b9060005260206000200160009054906101000a900473ffffffffffffffffffffffffffffffffffffffff16905092915050565b610788610d8b565b600084849050116107ce576040517f08c379a00000000000000000000000000000000000000000000000000000000081526004016107c5906118ac565b60405180910390fd5b428211610810576040517f08c379a000000000000000000000000000000000000000000000000000000000815260040161080790611bf3565b60405180910390fd5b6000811180156108235750838390508111155b610862576040517f08c379a00000000000000000000000000000000000000000000000000000000081526004016108599061193e565b60405180910390fd5b60016000808282829054906101000a900463ffffffff166108839190611c42565b92506101000a81548163ffffffff021916908363ffffffff1602179055506040518060400160405280858580806020026020016040519081016040528093929190818152602001838360200280828437600081840152601f19601f82011690508083019250505050505050815260200183815250600160008060009054906101000a900463ffffffff1663ffffffff1663ffffffff16815260200190815260200160002060008201518160000190805190602001906109439291906111cc565b506020820151816001015590505080600260008060009054906101000a900463ffffffff1663ffffffff1663ffffffff1681526020019081526020016000208190555060008054906101000a900463ffffffff1663ffffffff167f040e08e85d8648f6568a266d340dfd142e0cdceb54d02a1160ac5c23383df8818585856040516109d093929190611d05565b60405180910390a260008054906101000a900463ffffffff1663ffffffff167fbdc7025922b6ea646e078b86c4ac3627486c63baf73ccf68605856527a518ffb82604051610a1e9190611309565b60405180910390a250505050565b610a34610d8b565b600073ffffffffffffffffffffffffffffffffffffffff168173ffffffffffffffffffffffffffffffffffffffff1603610aa65760006040517f1e4fbdf7000000000000000000000000000000000000000000000000000000008152600401610a9d9190611572565b60405180910390fd5b610aaf81610e12565b50565b600080600160008763ffffffff1663ffffffff16815260200190815260200160002060405180604001604052908160008201805480602002602001604051908101604052809291908181526020018280548015610b6457602002820191906000526020600020905b8160009054906101000a900473ffffffffffffffffffffffffffffffffffffffff1673ffffffffffffffffffffffffffffffffffffffff1681526020019060010190808311610b1a575b5050505050815260200160018201548152505090506000600260008863ffffffff1663ffffffff168152602001908152602001600020549050600085859050905081811015610bb95760009350505050610d47565b60008060005b83811015610d3c576000610c3a8b8b8b85818110610be057610bdf611b52565b5b9050602002810190610bf29190611d46565b8080601f016020809104026020016040519081016040528093929190818152602001838380828437600081840152601f19601f82011690508083019250505050505050610f11565b905060007fffffffffffffffffffffffffffffffffffffffffffffffffffffffffffffffff905060005b886000015151811015610cd7578273ffffffffffffffffffffffffffffffffffffffff1689600001518281518110610c9f57610c9e611b52565b5b602002602001015173ffffffffffffffffffffffffffffffffffffffff1603610cca57809150610cd7565b8080600101915050610c64565b506000811215610ce8575050610d2f565b6000816001901b861614610cfd575050610d2f565b806001901b851794508380610d1190611da9565b945050868410610d2c57600198505050505050505050610d47565b50505b8080600101915050610bbf565b506000955050505050505b949350505050565b60008054906101000a900463ffffffff1681565b600080610d6e6110b3565b90508091505090565b610d7f6110de565b610d888161111e565b50565b610d936111a4565b73ffffffffffffffffffffffffffffffffffffffff16610db1610678565b73ffffffffffffffffffffffffffffffffffffffff1614610e1057610dd46111a4565b6040517f118cdaa7000000000000000000000000000000000000000000000000000000008152600401610e079190611572565b60405180910390fd5b565b6000610e1c610ee9565b905060008160000160009054906101000a900473ffffffffffffffffffffffffffffffffffffffff169050828260000160006101000a81548173ffffffffffffffffffffffffffffffffffffffff021916908373ffffffffffffffffffffffffffffffffffffffff1602179055508273ffffffffffffffffffffffffffffffffffffffff168173ffffffffffffffffffffffffffffffffffffffff167f8be0079c531659141344cd1fd0a4f28419497f9722a3daafe3b4186f6b6457e060405160405180910390a3505050565b60007f9016d09d72d40fdae2fd8ceac6b6234c7706214fd39c1cd1e609a0528c199300905090565b60006041825114610f57576040517f08c379a0000000000000000000000000000000000000000000000000000000008152600401610f4e90611e63565b60405180910390fd5b60008060006020850151925060408501519150606085015160001a9050601b8160ff161015610f9057601b81610f8d9190611e90565b90505b601b8160ff161480610fa55750601c8160ff16145b610fe4576040517f08c379a0000000000000000000000000000000000000000000000000000000008152600401610fdb90611f11565b60405180910390fd5b6000600187838686604051600081526020016040526040516110099493929190611f4f565b6020604051602081039080840390855afa15801561102b573d6000803e3d6000fd5b505050602060405103519050600073ffffffffffffffffffffffffffffffffffffffff168173ffffffffffffffffffffffffffffffffffffffff16036110a6576040517f08c379a000000000000000000000000000000000000000000000000000000000815260040161109d90612006565b60405180910390fd5b8094505050505092915050565b60007ff0c57e16840df040f15088dc2f81fe391c3923bec73e23a9662efc9c229c6a0060001b905090565b6110e66111ac565b61111c576040517fd7e6bcf800000000000000000000000000000000000000000000000000000000815260040160405180910390fd5b565b6111266110de565b600073ffffffffffffffffffffffffffffffffffffffff168173ffffffffffffffffffffffffffffffffffffffff16036111985760006040517f1e4fbdf700000000000000000000000000000000000000000000000000000000815260040161118f9190611572565b60405180910390fd5b6111a181610e12565b50565b600033905090565b60006111b6610d63565b60000160089054906101000a900460ff16905090565b828054828255906000526020600020908101928215611245579160200282015b828111156112445782518260006101000a81548173ffffffffffffffffffffffffffffffffffffffff021916908373ffffffffffffffffffffffffffffffffffffffff160217905550916020019190600101906111ec565b5b5090506112529190611256565b5090565b5b8082111561126f576000816000905550600101611257565b5090565b6000604051905090565b600080fd5b600080fd5b600063ffffffff82169050919050565b6112a081611287565b81146112ab57600080fd5b50565b6000813590506112bd81611297565b92915050565b6000602082840312156112d9576112d861127d565b5b60006112e7848285016112ae565b91505092915050565b6000819050919050565b611303816112f0565b82525050565b600060208201905061131e60008301846112fa565b92915050565b600080fd5b6000601f19601f8301169050919050565b7f4e487b7100000000000000000000000000000000000000000000000000000000600052604160045260246000fd5b61137282611329565b810181811067ffffffffffffffff821117156113915761139061133a565b5b80604052505050565b60006113a4611273565b90506113b08282611369565b919050565b600067ffffffffffffffff8211156113d0576113cf61133a565b5b602082029050602081019050919050565b600080fd5b600073ffffffffffffffffffffffffffffffffffffffff82169050919050565b6000611411826113e6565b9050919050565b61142181611406565b811461142c57600080fd5b50565b60008135905061143e81611418565b92915050565b6000611457611452846113b5565b61139a565b9050808382526020820190506020840283018581111561147a576114796113e1565b5b835b818110156114a3578061148f888261142f565b84526020840193505060208101905061147c565b5050509392505050565b600082601f8301126114c2576114c1611324565b5b81356114d2848260208601611444565b91505092915050565b6114e4816112f0565b81146114ef57600080fd5b50565b600081359050611501816114db565b92915050565b6000806040838503121561151e5761151d61127d565b5b600083013567ffffffffffffffff81111561153c5761153b611282565b5b611548858286016114ad565b9250506020611559858286016114f2565b9150509250929050565b61156c81611406565b82525050565b60006020820190506115876000830184611563565b92915050565b600080604083850312156115a4576115a361127d565b5b60006115b2858286016112ae565b92505060206115c3858286016114f2565b9150509250929050565b600080fd5b60008083601f8401126115e8576115e7611324565b5b8235905067ffffffffffffffff811115611605576116046115cd565b5b602083019150836020820283011115611621576116206113e1565b5b9250929050565b600080600080606085870312156116425761164161127d565b5b600085013567ffffffffffffffff8111156116605761165f611282565b5b61166c878288016115d2565b9450945050602061167f878288016114f2565b9250506040611690878288016114f2565b91505092959194509250565b6000602082840312156116b2576116b161127d565b5b60006116c08482850161142f565b91505092915050565b6000819050919050565b6116dc816116c9565b81146116e757600080fd5b50565b6000813590506116f9816116d3565b92915050565b60008083601f84011261171557611714611324565b5b8235905067ffffffffffffffff811115611732576117316115cd565b5b60208301915083602082028301111561174e5761174d6113e1565b5b9250929050565b6000806000806060858703121561176f5761176e61127d565b5b600061177d878288016112ae565b945050602061178e878288016116ea565b935050604085013567ffffffffffffffff8111156117af576117ae611282565b5b6117bb878288016116ff565b925092505092959194509250565b60008115159050919050565b6117de816117c9565b82525050565b60006020820190506117f960008301846117d5565b92915050565b61180881611287565b82525050565b600060208201905061182360008301846117ff565b92915050565b600082825260208201905092915050565b7f56616c696461746f7252656769737472793a20656d707479206775617264696160008201527f6e73000000000000000000000000000000000000000000000000000000000000602082015250565b6000611896602283611829565b91506118a18261183a565b604082019050919050565b600060208201905081810360008301526118c581611889565b9050919050565b7f56616c696461746f7252656769737472793a20696e76616c696420746872657360008201527f686f6c6400000000000000000000000000000000000000000000000000000000602082015250565b6000611928602483611829565b9150611933826118cc565b604082019050919050565b600060208201905081810360008301526119578161191b565b9050919050565b600081519050919050565b600082825260208201905092915050565b6000819050602082019050919050565b61199381611406565b82525050565b60006119a5838361198a565b60208301905092915050565b6000602082019050919050565b60006119c98261195e565b6119d38185611969565b93506119de8361197a565b8060005b83811015611a0f5781516119f68882611999565b9750611a01836119b1565b9250506001810190506119e2565b5085935050505092915050565b60006040820190508181036000830152611a3681856119be565b9050611a4560208301846112fa565b9392505050565b6000819050919050565b600067ffffffffffffffff82169050919050565b6000819050919050565b6000611a8f611a8a611a8584611a4c565b611a6a565b611a56565b9050919050565b611a9f81611a74565b82525050565b6000602082019050611aba6000830184611a96565b92915050565b7f56616c696461746f7252656769737472793a20696e646578206f7574206f662060008201527f626f756e64730000000000000000000000000000000000000000000000000000602082015250565b6000611b1c602683611829565b9150611b2782611ac0565b604082019050919050565b60006020820190508181036000830152611b4b81611b0f565b9050919050565b7f4e487b7100000000000000000000000000000000000000000000000000000000600052603260045260246000fd5b7f56616c696461746f7252656769737472793a2065787069726174696f6e206d7560008201527f7374206265206675747572650000000000000000000000000000000000000000602082015250565b6000611bdd602c83611829565b9150611be882611b81565b604082019050919050565b60006020820190508181036000830152611c0c81611bd0565b9050919050565b7f4e487b7100000000000000000000000000000000000000000000000000000000600052601160045260246000fd5b6000611c4d82611287565b9150611c5883611287565b9250828201905063ffffffff811115611c7457611c73611c13565b5b92915050565b6000819050919050565b6000611c93602084018461142f565b905092915050565b6000602082019050919050565b6000611cb48385611969565b9350611cbf82611c7a565b8060005b85811015611cf857611cd58284611c84565b611cdf8882611999565b9750611cea83611c9b565b925050600181019050611cc3565b5085925050509392505050565b60006040820190508181036000830152611d20818587611ca8565b9050611d2f60208301846112fa565b949350505050565b600080fd5b600080fd5b600080fd5b60008083356001602003843603038112611d6357611d62611d37565b5b80840192508235915067ffffffffffffffff821115611d8557611d84611d3c565b5b602083019250600182023603831315611da157611da0611d41565b5b509250929050565b6000611db4826112f0565b91507fffffffffffffffffffffffffffffffffffffffffffffffffffffffffffffffff8203611de657611de5611c13565b5b600182019050919050565b7f56616c696461746f7252656769737472793a20696e76616c6964207369676e6160008201527f74757265206c656e677468000000000000000000000000000000000000000000602082015250565b6000611e4d602b83611829565b9150611e5882611df1565b604082019050919050565b60006020820190508181036000830152611e7c81611e40565b9050919050565b600060ff82169050919050565b6000611e9b82611e83565b9150611ea683611e83565b9250828201905060ff811115611ebf57611ebe611c13565b5b92915050565b7f56616c696461746f7252656769737472793a20696e76616c6964207600000000600082015250565b6000611efb601c83611829565b9150611f0682611ec5565b602082019050919050565b60006020820190508181036000830152611f2a81611eee565b9050919050565b611f3a816116c9565b82525050565b611f4981611e83565b82525050565b6000608082019050611f646000830187611f31565b611f716020830186611f40565b611f7e6040830185611f31565b611f8b6060830184611f31565b95945050505050565b7f56616c696461746f7252656769737472793a20696e76616c6964207369676e6560008201527f7200000000000000000000000000000000000000000000000000000000000000602082015250565b6000611ff0602183611829565b9150611ffb82611f94565b604082019050919050565b6000602082019050818103600083015261201f81611fe3565b905091905056fea2646970667358221220b54ec0ab626d38f0127dd7754eb5c8216153f47f60fa90993a0a442c609f7f2264736f6c634300081c0033",
  "linkReferences": {},
  "deployedLinkReferences": {}
}