{
  "_format": "hh-sol-artifact-1",
  "contractName": "ValidatorRegistry",
  "sourceName": "contracts/ValidatorRegistry.sol",
  "abi": [
    {
      "inputs": [
        {
          "internalType": "address[]",
          "name": "_validators",
          "type": "address[]"
        },
        {
          "internalType": "uint256",
          "name": "_threshold",
          "type": "uint256"
        }
      ],
      "stateMutability": "nonpayable",
      "type": "constructor"
    },
    {
      "anonymous": false,
      "inputs": [
        {
          "indexed": false,
          "internalType": "uint256",
          "name": "newThreshold",
          "type": "uint256"
        }
      ],
      "name": "ThresholdUpdated",
      "type": "event"
    },
    {
      "anonymous": false,
      "inputs": [
        {
          "indexed": false,
          "internalType": "address",
          "name": "validator",
          "type": "address"
        }
      ],
      "name": "ValidatorAdded",
      "type": "event"
    },
    {
      "anonymous": false,
      "inputs": [
        {
          "indexed": false,
          "internalType": "address",
          "name": "validator",
          "type": "address"
        }
      ],
      "name": "ValidatorRemoved",
      "type": "event"
    },
    {
      "inputs": [
        {
          "internalType": "address",
          "name": "",
          "type": "address"
        }
      ],
      "name": "isValidator",
      "outputs": [
        {
          "internalType": "bool",
          "name": "",
          "type": "bool"
        }
      ],
      "stateMutability": "view",
      "type": "function"
    },
    {
      "inputs": [],
      "name": "threshold",
      "outputs": [
        {
          "internalType": "uint256",
          "name": "",
          "type": "uint256"
        }
      ],
      "stateMutability": "view",
      "type": "function"
    },
    {
      "inputs": [],
      "name": "validatorCount",
      "outputs": [
        {
          "internalType": "uint256",
          "name": "",
          "type": "uint256"
        }
      ],
      "stateMutability": "view",
      "type": "function"
    },
    {
      "inputs": [
        {
          "internalType": "uint256",
          "name": "",
          "type": "uint256"
        }
      ],
      "name": "validators",
      "outputs": [
        {
          "internalType": "address",
          "name": "",
          "type": "address"
        }
      ],
      "stateMutability": "view",
      "type": "function"
    },
    {
      "inputs": [
        {
          "internalType": "bytes32",
          "name": "messageHash",
          "type": "bytes32"
        },
        {
          "internalType": "bytes[]",
          "name": "signatures",
          "type": "bytes[]"
        }
      ],
      "name": "verifySignatures",
      "outputs": [
        {
          "internalType": "bool",
          "name": "",
          "type": "bool"
        }
      ],
      "stateMutability": "view",
      "type": "function"
    }
  ],
  "bytecode": "0x608060405234801561001057600080fd5b5060405161148b38038061148b83398181016040528101906100329190610534565b6000825111610076576040517f08c379a000000000000000000000000000000000000000000000000000000000815260040161006d90610613565b60405180910390fd5b600081116100b9576040517f08c379a00000000000000000000000000000000000000000000000000000000081526004016100b0906106a5565b60405180910390fd5b81518111156100fd576040517f08c379a00000000000000000000000000000000000000000000000000000000081526004016100f490610737565b60405180910390fd5b8060018190555060005b825181101561032b57600083828151811061012557610124610757565b5b60200260200101519050600073ffffffffffffffffffffffffffffffffffffffff168173ffffffffffffffffffffffffffffffffffffffff160361019e576040517f08c379a0000000000000000000000000000000000000000000000000000000008152600401610195906107d2565b60405180910390fd5b600260008273ffffffffffffffffffffffffffffffffffffffff1673ffffffffffffffffffffffffffffffffffffffff16815260200190815260200160002060009054906101000a900460ff161561022b576040517f08c379a000000000000000000000000000000000000000000000000000000000815260040161022290610864565b60405180910390fd5b6001600260008373ffffffffffffffffffffffffffffffffffffffff1673ffffffffffffffffffffffffffffffffffffffff16815260200190815260200160002060006101000a81548160ff0219169083151502179055506000819080600181540180825580915050600190039060005260206000200160009091909190916101000a81548173ffffffffffffffffffffffffffffffffffffffff021916908373ffffffffffffffffffffffffffffffffffffffff1602179055507fe366c1c0452ed8eec96861e9e54141ebff23c9ec89fe27b996b45f5ec3884987816040516103159190610893565b60405180910390a1508080600101915050610107565b5050506108ae565b6000604051905090565b600080fd5b600080fd5b600080fd5b6000601f19601f8301169050919050565b7f4e487b7100000000000000000000000000000000000000000000000000000000600052604160045260246000fd5b6103958261034c565b810181811067ffffffffffffffff821117156103b4576103b361035d565b5b80604052505050565b60006103c7610333565b90506103d3828261038c565b919050565b600067ffffffffffffffff8211156103f3576103f261035d565b5b602082029050602081019050919050565b600080fd5b600073ffffffffffffffffffffffffffffffffffffffff82169050919050565b600061043482610409565b9050919050565b61044481610429565b811461044f57600080fd5b50565b6000815190506104618161043b565b92915050565b600061047a610475846103d8565b6103bd565b9050808382526020820190506020840283018581111561049d5761049c610404565b5b835b818110156104c657806104b28882610452565b84526020840193505060208101905061049f565b5050509392505050565b600082601f8301126104e5576104e4610347565b5b81516104f5848260208601610467565b91505092915050565b6000819050919050565b610511816104fe565b811461051c57600080fd5b50565b60008151905061052e81610508565b92915050565b6000806040838503121561054b5761054a61033d565b5b600083015167ffffffffffffffff81111561056957610568610342565b5b610575858286016104d0565b92505060206105868582860161051f565b9150509250929050565b600082825260208201905092915050565b7f56616c696461746f7252656769737472793a20456d7074792076616c6964617460008201527f6f72730000000000000000000000000000000000000000000000000000000000602082015250565b60006105fd602383610590565b9150610608826105a1565b604082019050919050565b6000602082019050818103600083015261062c816105f0565b9050919050565b7f56616c696461746f7252656769737472793a205468726573686f6c64207a657260008201527f6f00000000000000000000000000000000000000000000000000000000000000602082015250565b600061068f602183610590565b915061069a82610633565b604082019050919050565b600060208201905081810360008301526106be81610682565b9050919050565b7f56616c696461746f7252656769737472793a205468726573686f6c6420746f6f60008201527f2068696768000000000000000000000000000000000000000000000000000000602082015250565b6000610721602583610590565b915061072c826106c5565b604082019050919050565b6000602082019050818103600083015261075081610714565b9050919050565b7f4e487b7100000000000000000000000000000000000000000000000000000000600052603260045260246000fd5b7f56616c696461746f7252656769737472793a205a65726f206164647265737300600082015250565b60006107bc601f83610590565b91506107c782610786565b602082019050919050565b600060208201905081810360008301526107eb816107af565b9050919050565b7f56616c696461746f7252656769737472793a204475706c69636174652076616c60008201527f696461746f720000000000000000000000000000000000000000000000000000602082015250565b600061084e602683610590565b9150610859826107f2565b604082019050919050565b6000602082019050818103600083015261087d81610841565b9050919050565b61088d81610429565b82525050565b60006020820190506108a86000830184610884565b92915050565b610bce806108bd6000396000f3fe608060405234801561001057600080fd5b50600436106100575760003560e01c80630a5c54b31461005c5780630f43a6771461008c57806335aa2e44146100aa57806342cde4e8146100da578063facd743b146100f8575b600080fd5b61007660048036038101906100719190610633565b610128565b60405161008391906106ae565b60405180910390f35b61009461037b565b6040516100a191906106e2565b60405180910390f35b6100c460048036038101906100bf9190610729565b610387565b6040516100d19190610797565b60405180910390f35b6100e26103c6565b6040516100ef91906106e2565b60405180910390f35b610112600480360381019061010d91906107de565b6103cc565b60405161011f91906106ae565b60405180910390f35b600080838390509050600154811015610145576000915050610374565b6000808267ffffffffffffffff8111156101625761016161080b565b5b6040519080825280602002602001820160405280156101905781602001602082028036833780820191505090505b50905060005b8381101561036b576000610211898989858181106101b7576101b661083a565b5b90506020028101906101c99190610878565b8080601f016020809104026020016040519081016040528093929190818152602001838380828437600081840152601f19601f820116905080830192505050505050506103ec565b9050600260008273ffffffffffffffffffffffffffffffffffffffff1673ffffffffffffffffffffffffffffffffffffffff16815260200190815260200160002060009054906101000a900460ff1661026a575061035e565b6000805b858110156102d9578273ffffffffffffffffffffffffffffffffffffffff168582815181106102a05761029f61083a565b5b602002602001015173ffffffffffffffffffffffffffffffffffffffff16036102cc57600191506102d9565b808060010191505061026e565b5080156102e757505061035e565b818486815181106102fb576102fa61083a565b5b602002602001019073ffffffffffffffffffffffffffffffffffffffff16908173ffffffffffffffffffffffffffffffffffffffff168152505084806103409061090a565b955050600154851061035b5760019650505050505050610374565b50505b8080600101915050610196565b50600093505050505b9392505050565b60008080549050905090565b6000818154811061039757600080fd5b906000526020600020016000915054906101000a900473ffffffffffffffffffffffffffffffffffffffff1681565b60015481565b60026020528060005260406000206000915054906101000a900460ff1681565b60006041825114610432576040517f08c379a0000000000000000000000000000000000000000000000000000000008152600401610429906109d5565b60405180910390fd5b60008060006020850151925060408501519150606085015160001a9050601b8160ff16101561046b57601b816104689190610a02565b90505b601b8160ff1614806104805750601c8160ff16145b6104bf576040517f08c379a00000000000000000000000000000000000000000000000000000000081526004016104b690610a83565b60405180910390fd5b6000600187838686604051600081526020016040526040516104e49493929190610ac1565b6020604051602081039080840390855afa158015610506573d6000803e3d6000fd5b505050602060405103519050600073ffffffffffffffffffffffffffffffffffffffff168173ffffffffffffffffffffffffffffffffffffffff1603610581576040517f08c379a000000000000000000000000000000000000000000000000000000000815260040161057890610b78565b60405180910390fd5b8094505050505092915050565b600080fd5b600080fd5b6000819050919050565b6105ab81610598565b81146105b657600080fd5b50565b6000813590506105c8816105a2565b92915050565b600080fd5b600080fd5b600080fd5b60008083601f8401126105f3576105f26105ce565b5b8235905067ffffffffffffffff8111156106105761060f6105d3565b5b60208301915083602082028301111561062c5761062b6105d8565b5b9250929050565b60008060006040848603121561064c5761064b61058e565b5b600061065a868287016105b9565b935050602084013567ffffffffffffffff81111561067b5761067a610593565b5b610687868287016105dd565b92509250509250925092565b60008115159050919050565b6106a881610693565b82525050565b60006020820190506106c3600083018461069f565b92915050565b6000819050919050565b6106dc816106c9565b82525050565b60006020820190506106f760008301846106d3565b92915050565b610706816106c9565b811461071157600080fd5b50565b600081359050610723816106fd565b92915050565b60006020828403121561073f5761073e61058e565b5b600061074d84828501610714565b91505092915050565b600073ffffffffffffffffffffffffffffffffffffffff82169050919050565b600061078182610756565b9050919050565b61079181610776565b82525050565b60006020820190506107ac6000830184610788565b92915050565b6107bb81610776565b81146107c657600080fd5b50565b6000813590506107d8816107b2565b92915050565b6000602082840312156107f4576107f361058e565b5b6000610802848285016107c9565b91505092915050565b7f4e487b7100000000000000000000000000000000000000000000000000000000600052604160045260246000fd5b7f4e487b7100000000000000000000000000000000000000000000000000000000600052603260045260246000fd5b600080fd5b600080fd5b600080fd5b6000808335600160200384360303811261089557610894610869565b5b80840192508235915067ffffffffffffffff8211156108b7576108b661086e565b5b6020830192506001820236038313156108d3576108d2610873565b5b509250929050565b7f4e487b7100000000000000000000000000000000000000000000000000000000600052601160045260246000fd5b6000610915826106c9565b91507fffffffffffffffffffffffffffffffffffffffffffffffffffffffffffffffff8203610947576109466108db565b5b600182019050919050565b600082825260208201905092915050565b7f56616c696461746f7252656769737472793a20496e76616c6964207369676e6160008201527f74757265206c656e677468000000000000000000000000000000000000000000602082015250565b60006109bf602b83610952565b91506109ca82610963565b604082019050919050565b600060208201905081810360008301526109ee816109b2565b9050919050565b600060ff82169050919050565b6000610a0d826109f5565b9150610a18836109f5565b9250828201905060ff811115610a3157610a306108db565b5b92915050565b7f56616c696461746f7252656769737472793a20496e76616c6964207600000000600082015250565b6000610a6d601c83610952565b9150610a7882610a37565b602082019050919050565b60006020820190508181036000830152610a9c81610a60565b9050919050565b610aac81610598565b82525050565b610abb816109f5565b82525050565b6000608082019050610ad66000830187610aa3565b610ae36020830186610ab2565b610af06040830185610aa3565b610afd6060830184610aa3565b95945050505050565b7f56616c696461746f7252656769737472793a20496e76616c6964207369676e6560008201527f7200000000000000000000000000000000000000000000000000000000000000602082015250565b6000610b62602183610952565b9150610b6d82610b06565b604082019050919050565b60006020820190508181036000830152610b9181610b55565b905091905056fea2646970667358221220af867c7977c891793ec7b593d7fd4fcb244112fd8ec014c23de5e765ce59fec964736f6c634300081c0033",
  "linkReferences": {},
  "deployedLinkReferences": {}
}