{
  "_format": "hh-sol-artifact-1",
  "contractName": "SCAITokenLocker",
  "sourceName": "contracts/SCAITokenLocker.sol",
  "abi": [
    {
      "inputs": [
        {
          "internalType": "address",
          "name": "target",
          "type": "address"
        }
      ],
      "name": "AddressEmptyCode",
      "type": "error"
    },
    {
      "inputs": [
        {
          "internalType": "address",
          "name": "implementation",
          "type": "address"
        }
      ],
      "name": "ERC1967InvalidImplementation",
      "type": "error"
    },
    {
      "inputs": [],
      "name": "ERC1967NonPayable",
      "type": "error"
    },
    {
      "inputs": [],
      "name": "FailedCall",
      "type": "error"
    },
    {
      "inputs": [],
      "name": "InvalidInitialization",
      "type": "error"
    },
    {
      "inputs": [],
      "name": "NotInitializing",
      "type": "error"
    },
    {
      "inputs": [
        {
          "internalType": "address",
          "name": "owner",
          "type": "address"
        }
      ],
      "name": "OwnableInvalidOwner",
      "type": "error"
    },
    {
      "inputs": [
        {
          "internalType": "address",
          "name": "account",
          "type": "address"
        }
      ],
      "name": "OwnableUnauthorizedAccount",
      "type": "error"
    },
    {
      "inputs": [],
      "name": "ReentrancyGuardReentrantCall",
      "type": "error"
    },
    {
      "inputs": [],
      "name": "UUPSUnauthorizedCallContext",
      "type": "error"
    },
    {
      "inputs": [
        {
          "internalType": "bytes32",
          "name": "slot",
          "type": "bytes32"
        }
      ],
      "name": "UUPSUnsupportedProxiableUUID",
      "type": "error"
    },
    {
      "anonymous": false,
      "inputs": [
        {
          "indexed": false,
          "internalType": "uint64",
          "name": "version",
          "type": "uint64"
        }
      ],
      "name": "Initialized",
      "type": "event"
    },
    {
      "anonymous": false,
      "inputs": [
        {
          "indexed": true,
          "internalType": "address",
          "name": "sender",
          "type": "address"
        },
        {
          "indexed": false,
          "internalType": "uint256",
          "name": "amount",
          "type": "uint256"
        },
        {
          "indexed": true,
          "internalType": "bytes32",
          "name": "orderId",
          "type": "bytes32"
        }
      ],
      "name": "Locked",
      "type": "event"
    },
    {
      "anonymous": false,
      "inputs": [
        {
          "indexed": true,
          "internalType": "address",
          "name": "previousOwner",
          "type": "address"
        },
        {
          "indexed": true,
          "internalType": "address",
          "name": "newOwner",
          "type": "address"
        }
      ],
      "name": "OwnershipTransferred",
      "type": "event"
    },
    {
      "anonymous": false,
      "inputs": [
        {
          "indexed": true,
          "internalType": "address",
          "name": "recipient",
          "type": "address"
        },
        {
          "indexed": false,
          "internalType": "uint256",
          "name": "amount",
          "type": "uint256"
        },
        {
          "indexed": true,
          "internalType": "bytes32",
          "name": "orderId",
          "type": "bytes32"
        }
      ],
      "name": "Unlocked",
      "type": "event"
    },
    {
      "anonymous": false,
      "inputs": [
        {
          "indexed": true,
          "internalType": "address",
          "name": "implementation",
          "type": "address"
        }
      ],
      "name": "Upgraded",
      "type": "event"
    },
    {
      "inputs": [],
      "name": "UPGRADE_INTERFACE_VERSION",
      "outputs": [
        {
          "internalType": "string",
          "name": "",
          "type": "string"
        }
      ],
      "stateMutability": "view",
      "type": "function"
    },
    {
      "inputs": [
        {
          "internalType": "bytes32",
          "name": "",
          "type": "bytes32"
        }
      ],
      "name": "executedOrders",
      "outputs": [
        {
          "internalType": "bool",
          "name": "",
          "type": "bool"
        }
      ],
      "stateMutability": "view",
      "type": "function"
    },
    {
      "inputs": [
        {
          "internalType": "address",
          "name": "_verifier",
          "type": "address"
        }
      ],
      "name": "initialize",
      "outputs": [],
      "stateMutability": "nonpayable",
      "type": "function"
    },
    {
      "inputs": [],
      "name": "lock",
      "outputs": [
        {
          "internalType": "bytes32",
          "name": "",
          "type": "bytes32"
        }
      ],
      "stateMutability": "payable",
      "type": "function"
    },
    {
      "inputs": [
        {
          "internalType": "bytes32",
          "name": "",
          "type": "bytes32"
        }
      ],
      "name": "lockedOrders",
      "outputs": [
        {
          "internalType": "uint256",
          "name": "",
          "type": "uint256"
        }
      ],
      "stateMutability": "view",
      "type": "function"
    },
    {
      "inputs": [],
      "name": "owner",
      "outputs": [
        {
          "internalType": "address",
          "name": "",
          "type": "address"
        }
      ],
      "stateMutability": "view",
      "type": "function"
    },
    {
      "inputs": [],
      "name": "proxiableUUID",
      "outputs": [
        {
          "internalType": "bytes32",
          "name": "",
          "type": "bytes32"
        }
      ],
      "stateMutability": "view",
      "type": "function"
    },
    {
      "inputs": [],
      "name": "renounceOwnership",
      "outputs": [],
      "stateMutability": "nonpayable",
      "type": "function"
    },
    {
      "inputs": [],
      "name": "totalLocked",
      "outputs": [
        {
          "internalType": "uint256",
          "name": "",
          "type": "uint256"
        }
      ],
      "stateMutability": "view",
      "type": "function"
    },
    {
      "inputs": [
        {
          "internalType": "address",
          "name": "newOwner",
          "type": "address"
        }
      ],
      "name": "transferOwnership",
      "outputs": [],
      "stateMutability": "nonpayable",
      "type": "function"
    },
    {
      "inputs": [
        {
          "internalType": "address",
          "name": "recipient",
          "type": "address"
        },
        {
          "internalType": "uint256",
          "name": "amount",
          "type": "uint256"
        },
        {
          "internalType": "bytes32",
          "name": "orderId",
          "type": "bytes32"
        },
        {
          "internalType": "bytes[]",
          "name": "signatures",
          "type": "bytes[]"
        },
        {
          "internalType": "uint256",
          "name": "nonce",
          "type": "uint256"
        },
        {
          "internalType": "uint256",
          "name": "timestamp",
          "type": "uint256"
        }
      ],
      "name": "unlock",
      "outputs": [],
      "stateMutability": "nonpayable",
      "type": "function"
    },
    {
      "inputs": [
        {
          "internalType": "address",
          "name": "newImplementation",
          "type": "address"
        },
        {
          "internalType": "bytes",
          "name": "data",
          "type": "bytes"
        }
      ],
      "name": "upgradeToAndCall",
      "outputs": [],
      "stateMutability": "payable",
      "type": "function"
    },
    {
      "inputs": [],
      "name": "verifier",
      "outputs": [
        {
          "internalType": "contract MessageVerifier",
          "name": "",
          "type": "address"
        }
      ],
      "stateMutability": "view",
      "type": "function"
    },
    {
      "stateMutability": "payable",
      "type": "receive"
    }
  ],
  "bytecode": "0x60a06040523073ffffffffffffffffffffffffffffffffffffffff1660809073ffffffffffffffffffffffffffffffffffffffff16815250348015604257600080fd5b5060805161253461006c60003960008181610cc901528181610d1e0152610ed901526125346000f3fe6080604052600436106100c65760003560e01c80638da5cb5b1161007f578063bd91cdc811610059578063bd91cdc814610242578063c4d66de81461027f578063f2fde38b146102a8578063f83d08ba146102d1576100cd565b80638da5cb5b146101c3578063abd640dc146101ee578063ad3cb1cc14610217576100cd565b80632b7ac3f3146100d25780633740bf52146100fd5780634f1ef2861461013a57806352d1902d146101565780635689141214610181578063715018a6146101ac576100cd565b366100cd57005b600080fd5b3480156100de57600080fd5b506100e76102ef565b6040516100f491906116a4565b60405180910390f35b34801561010957600080fd5b50610124600480360381019061011f9190611709565b610315565b6040516101319190611751565b60405180910390f35b610154600480360381019061014f91906118f0565b610335565b005b34801561016257600080fd5b5061016b610354565b604051610178919061195b565b60405180910390f35b34801561018d57600080fd5b50610196610387565b6040516101a3919061198f565b60405180910390f35b3480156101b857600080fd5b506101c161038d565b005b3480156101cf57600080fd5b506101d86103a1565b6040516101e591906119b9565b60405180910390f35b3480156101fa57600080fd5b5061021560048036038101906102109190611a60565b6103d9565b005b34801561022357600080fd5b5061022c61089d565b6040516102399190611b8e565b60405180910390f35b34801561024e57600080fd5b5061026960048036038101906102649190611709565b6108d6565b604051610276919061198f565b60405180910390f35b34801561028b57600080fd5b506102a660048036038101906102a19190611bb0565b6108ee565b005b3480156102b457600080fd5b506102cf60048036038101906102ca9190611bb0565b610b35565b005b6102d9610bbb565b6040516102e6919061195b565b60405180910390f35b600360009054906101000a900473ffffffffffffffffffffffffffffffffffffffff1681565b60026020528060005260406000206000915054906101000a900460ff1681565b61033d610cc7565b61034682610dad565b6103508282610db8565b5050565b600061035e610ed7565b7f360894a13ba1a3210667c828492db98dca3e2076cc3735a920a3ca505d382bbc60001b905090565b60005481565b610395610f5e565b61039f6000610fe5565b565b6000806103ac6110bc565b90508060000160009054906101000a900473ffffffffffffffffffffffffffffffffffffffff1691505090565b6103e16110e4565b600073ffffffffffffffffffffffffffffffffffffffff168773ffffffffffffffffffffffffffffffffffffffff1603610450576040517f08c379a000000000000000000000000000000000000000000000000000000000815260040161044790611c29565b60405180910390fd5b60008611610493576040517f08c379a000000000000000000000000000000000000000000000000000000000815260040161048a90611c95565b60405180910390fd5b6002600086815260200190815260200160002060009054906101000a900460ff16156104f4576040517f08c379a00000000000000000000000000000000000000000000000000000000081526004016104eb90611d27565b60405180910390fd5b61038481426105039190611d76565b10610543576040517f08c379a000000000000000000000000000000000000000000000000000000000815260040161053a90611df6565b60405180910390fd5b6000600160008781526020019081526020016000205490508681101561059e576040517f08c379a000000000000000000000000000000000000000000000000000000000815260040161059590611e62565b60405180910390fd5b6000600360009054906101000a900473ffffffffffffffffffffffffffffffffffffffff1673ffffffffffffffffffffffffffffffffffffffff16632bdaeb3b468b8b8b89896040518763ffffffff1660e01b815260040161060596959493929190611e82565b602060405180830381865afa158015610622573d6000803e3d6000fd5b505050506040513d601f19601f820116820180604052508101906106469190611ef8565b9050600360009054906101000a900473ffffffffffffffffffffffffffffffffffffffff1673ffffffffffffffffffffffffffffffffffffffff16630a5c54b38288886040518463ffffffff1660e01b81526004016106a793929190612089565b602060405180830381865afa1580156106c4573d6000803e3d6000fd5b505050506040513d601f19601f820116820180604052508101906106e891906120e7565b610727576040517f08c379a000000000000000000000000000000000000000000000000000000000815260040161071e90612186565b60405180910390fd5b60016002600089815260200190815260200160002060006101000a81548160ff021916908315150217905550876000808282546107649190611d76565b9250508190555087826107779190611d76565b600160008981526020019081526020016000208190555060008973ffffffffffffffffffffffffffffffffffffffff16896040516107b4906121d7565b60006040518083038185875af1925050503d80600081146107f1576040519150601f19603f3d011682016040523d82523d6000602084013e6107f6565b606091505b505090508061083a576040517f08c379a00000000000000000000000000000000000000000000000000000000081526004016108319061225e565b60405180910390fd5b878a73ffffffffffffffffffffffffffffffffffffffff167f0789f9c65a83ea68c24fd9e4ddf905e92e29f40da2c579072f6426d28e85ca138b604051610881919061198f565b60405180910390a350505061089461113b565b50505050505050565b6040518060400160405280600581526020017f352e302e3000000000000000000000000000000000000000000000000000000081525081565b60016020528060005260406000206000915090505481565b60006108f8611154565b905060008160000160089054906101000a900460ff1615905060008260000160009054906101000a900467ffffffffffffffff1690506000808267ffffffffffffffff161480156109465750825b9050600060018367ffffffffffffffff1614801561097b575060003073ffffffffffffffffffffffffffffffffffffffff163b145b905081158015610989575080155b156109c0576040517ff92ee8a900000000000000000000000000000000000000000000000000000000815260040160405180910390fd5b60018560000160006101000a81548167ffffffffffffffff021916908367ffffffffffffffff1602179055508315610a105760018560000160086101000a81548160ff0219169083151502179055505b600073ffffffffffffffffffffffffffffffffffffffff168673ffffffffffffffffffffffffffffffffffffffff1603610a7f576040517f08c379a0000000000000000000000000000000000000000000000000000000008152600401610a76906122ca565b60405180910390fd5b85600360006101000a81548173ffffffffffffffffffffffffffffffffffffffff021916908373ffffffffffffffffffffffffffffffffffffffff160217905550610ac933611168565b610ad161117c565b8315610b2d5760008560000160086101000a81548160ff0219169083151502179055507fc7f505b2f371ae2175ee4913f4499e1f2633a7b5936321eed1cdaeb6115181d26001604051610b249190612339565b60405180910390a15b505050505050565b610b3d610f5e565b600073ffffffffffffffffffffffffffffffffffffffff168173ffffffffffffffffffffffffffffffffffffffff1603610baf5760006040517f1e4fbdf7000000000000000000000000000000000000000000000000000000008152600401610ba691906119b9565b60405180910390fd5b610bb881610fe5565b50565b6000610bc56110e4565b60003411610c08576040517f08c379a0000000000000000000000000000000000000000000000000000000008152600401610bff906123a0565b60405180910390fd5b34600080828254610c1991906123c0565b92505081905550600033344243604051602001610c39949392919061245d565b604051602081830303815290604052805190602001209050346001600083815260200190815260200160002081905550803373ffffffffffffffffffffffffffffffffffffffff167f8e29de780780a3b570e950331831b01eb83f31afcf439d8c207f7fa1326d586734604051610cb0919061198f565b60405180910390a380915050610cc461113b565b90565b7f000000000000000000000000000000000000000000000000000000000000000073ffffffffffffffffffffffffffffffffffffffff163073ffffffffffffffffffffffffffffffffffffffff161480610d7457507f000000000000000000000000000000000000000000000000000000000000000073ffffffffffffffffffffffffffffffffffffffff16610d5b61118e565b73ffffffffffffffffffffffffffffffffffffffff1614155b15610dab576040517fe07c8dba00000000000000000000000000000000000000000000000000000000815260040160405180910390fd5b565b610db5610f5e565b50565b8173ffffffffffffffffffffffffffffffffffffffff166352d1902d6040518163ffffffff1660e01b8152600401602060405180830381865afa925050508015610e2057506040513d601f19601f82011682018060405250810190610e1d9190611ef8565b60015b610e6157816040517f4c9c8ce3000000000000000000000000000000000000000000000000000000008152600401610e5891906119b9565b60405180910390fd5b7f360894a13ba1a3210667c828492db98dca3e2076cc3735a920a3ca505d382bbc60001b8114610ec857806040517faa1d49a4000000000000000000000000000000000000000000000000000000008152600401610ebf919061195b565b60405180910390fd5b610ed283836111e5565b505050565b7f000000000000000000000000000000000000000000000000000000000000000073ffffffffffffffffffffffffffffffffffffffff163073ffffffffffffffffffffffffffffffffffffffff1614610f5c576040517fe07c8dba00000000000000000000000000000000000000000000000000000000815260040160405180910390fd5b565b610f66611258565b73ffffffffffffffffffffffffffffffffffffffff16610f846103a1565b73ffffffffffffffffffffffffffffffffffffffff1614610fe357610fa7611258565b6040517f118cdaa7000000000000000000000000000000000000000000000000000000008152600401610fda91906119b9565b60405180910390fd5b565b6000610fef6110bc565b905060008160000160009054906101000a900473ffffffffffffffffffffffffffffffffffffffff169050828260000160006101000a81548173ffffffffffffffffffffffffffffffffffffffff021916908373ffffffffffffffffffffffffffffffffffffffff1602179055508273ffffffffffffffffffffffffffffffffffffffff168173ffffffffffffffffffffffffffffffffffffffff167f8be0079c531659141344cd1fd0a4f28419497f9722a3daafe3b4186f6b6457e060405160405180910390a3505050565b60007f9016d09d72d40fdae2fd8ceac6b6234c7706214fd39c1cd1e609a0528c199300905090565b60006110ee611260565b9050600281600001540361112e576040517f3ee5aeb500000000000000000000000000000000000000000000000000000000815260040160405180910390fd5b6002816000018190555050565b6000611145611260565b90506001816000018190555050565b60008061115f611288565b90508091505090565b6111706112b3565b611179816112f3565b50565b6111846112b3565b61118c611379565b565b60006111bc7f360894a13ba1a3210667c828492db98dca3e2076cc3735a920a3ca505d382bbc60001b61139a565b60000160009054906101000a900473ffffffffffffffffffffffffffffffffffffffff16905090565b6111ee826113a4565b8173ffffffffffffffffffffffffffffffffffffffff167fbc7cd75a20ee27fd9adebab32041f755214dbc6bffa90cc0225b39da2e5c2d3b60405160405180910390a260008151111561124b576112458282611471565b50611254565b6112536114f5565b5b5050565b600033905090565b60007f9b779b17422d0df92223018b32b4d1fa46e071723d6817e2486d003becc55f00905090565b60007ff0c57e16840df040f15088dc2f81fe391c3923bec73e23a9662efc9c229c6a0060001b905090565b6112bb611532565b6112f1576040517fd7e6bcf800000000000000000000000000000000000000000000000000000000815260040160405180910390fd5b565b6112fb6112b3565b600073ffffffffffffffffffffffffffffffffffffffff168173ffffffffffffffffffffffffffffffffffffffff160361136d5760006040517f1e4fbdf700000000000000000000000000000000000000000000000000000000815260040161136491906119b9565b60405180910390fd5b61137681610fe5565b50565b6113816112b3565b600061138b611260565b90506001816000018190555050565b6000819050919050565b60008173ffffffffffffffffffffffffffffffffffffffff163b0361140057806040517f4c9c8ce30000000000000000000000000000000000000000000000000000000081526004016113f791906119b9565b60405180910390fd5b8061142d7f360894a13ba1a3210667c828492db98dca3e2076cc3735a920a3ca505d382bbc60001b61139a565b60000160006101000a81548173ffffffffffffffffffffffffffffffffffffffff021916908373ffffffffffffffffffffffffffffffffffffffff16021790555050565b60606000808473ffffffffffffffffffffffffffffffffffffffff168460405161149b91906124e7565b600060405180830381855af49150503d80600081146114d6576040519150601f19603f3d011682016040523d82523d6000602084013e6114db565b606091505b50915091506114eb858383611552565b9250505092915050565b6000341115611530576040517fb398979f00000000000000000000000000000000000000000000000000000000815260040160405180910390fd5b565b600061153c611154565b60000160089054906101000a900460ff16905090565b60608261156757611562826115e1565b6115d9565b6000825114801561158f575060008473ffffffffffffffffffffffffffffffffffffffff163b145b156115d157836040517f9996b3150000000000000000000000000000000000000000000000000000000081526004016115c891906119b9565b60405180910390fd5b8190506115da565b5b9392505050565b6000815111156115f357805160208201fd5b6040517fd6bda27500000000000000000000000000000000000000000000000000000000815260040160405180910390fd5b600073ffffffffffffffffffffffffffffffffffffffff82169050919050565b6000819050919050565b600061166a61166561166084611625565b611645565b611625565b9050919050565b600061167c8261164f565b9050919050565b600061168e82611671565b9050919050565b61169e81611683565b82525050565b60006020820190506116b96000830184611695565b92915050565b6000604051905090565b600080fd5b600080fd5b6000819050919050565b6116e6816116d3565b81146116f157600080fd5b50565b600081359050611703816116dd565b92915050565b60006020828403121561171f5761171e6116c9565b5b600061172d848285016116f4565b91505092915050565b60008115159050919050565b61174b81611736565b82525050565b60006020820190506117666000830184611742565b92915050565b600061177782611625565b9050919050565b6117878161176c565b811461179257600080fd5b50565b6000813590506117a48161177e565b92915050565b600080fd5b600080fd5b6000601f19601f8301169050919050565b7f4e487b7100000000000000000000000000000000000000000000000000000000600052604160045260246000fd5b6117fd826117b4565b810181811067ffffffffffffffff8211171561181c5761181b6117c5565b5b80604052505050565b600061182f6116bf565b905061183b82826117f4565b919050565b600067ffffffffffffffff82111561185b5761185a6117c5565b5b611864826117b4565b9050602081019050919050565b82818337600083830152505050565b600061189361188e84611840565b611825565b9050828152602081018484840111156118af576118ae6117af565b5b6118ba848285611871565b509392505050565b600082601f8301126118d7576118d66117aa565b5b81356118e7848260208601611880565b91505092915050565b60008060408385031215611907576119066116c9565b5b600061191585828601611795565b925050602083013567ffffffffffffffff811115611936576119356116ce565b5b611942858286016118c2565b9150509250929050565b611955816116d3565b82525050565b6000602082019050611970600083018461194c565b92915050565b6000819050919050565b61198981611976565b82525050565b60006020820190506119a46000830184611980565b92915050565b6119b38161176c565b82525050565b60006020820190506119ce60008301846119aa565b92915050565b6119dd81611976565b81146119e857600080fd5b50565b6000813590506119fa816119d4565b92915050565b600080fd5b600080fd5b60008083601f840112611a2057611a1f6117aa565b5b8235905067ffffffffffffffff811115611a3d57611a3c611a00565b5b602083019150836020820283011115611a5957611a58611a05565b5b9250929050565b600080600080600080600060c0888a031215611a7f57611a7e6116c9565b5b6000611a8d8a828b01611795565b9750506020611a9e8a828b016119eb565b9650506040611aaf8a828b016116f4565b955050606088013567ffffffffffffffff811115611ad057611acf6116ce565b5b611adc8a828b01611a0a565b94509450506080611aef8a828b016119eb565b92505060a0611b008a828b016119eb565b91505092959891949750929550565b600081519050919050565b600082825260208201905092915050565b60005b83811015611b49578082015181840152602081019050611b2e565b60008484015250505050565b6000611b6082611b0f565b611b6a8185611b1a565b9350611b7a818560208601611b2b565b611b83816117b4565b840191505092915050565b60006020820190508181036000830152611ba88184611b55565b905092915050565b600060208284031215611bc657611bc56116c9565b5b6000611bd484828501611795565b91505092915050565b7f53434149546f6b656e4c6f636b65723a207a65726f20726563697069656e7400600082015250565b6000611c13601f83611b1a565b9150611c1e82611bdd565b602082019050919050565b60006020820190508181036000830152611c4281611c06565b9050919050565b7f53434149546f6b656e4c6f636b65723a207a65726f20616d6f756e7400000000600082015250565b6000611c7f601c83611b1a565b9150611c8a82611c49565b602082019050919050565b60006020820190508181036000830152611cae81611c72565b9050919050565b7f53434149546f6b656e4c6f636b65723a20416c7265616479206578656375746560008201527f6400000000000000000000000000000000000000000000000000000000000000602082015250565b6000611d11602183611b1a565b9150611d1c82611cb5565b604082019050919050565b60006020820190508181036000830152611d4081611d04565b9050919050565b7f4e487b7100000000000000000000000000000000000000000000000000000000600052601160045260246000fd5b6000611d8182611976565b9150611d8c83611976565b9250828203905081811115611da457611da3611d47565b5b92915050565b7f53434149546f6b656e4c6f636b65723a2045787069726564206d657373616765600082015250565b6000611de0602083611b1a565b9150611deb82611daa565b602082019050919050565b60006020820190508181036000830152611e0f81611dd3565b9050919050565b7f53434149546f6b656e4c6f636b65723a20496e76616c696420616d6f756e7400600082015250565b6000611e4c601f83611b1a565b9150611e5782611e16565b602082019050919050565b60006020820190508181036000830152611e7b81611e3f565b9050919050565b600060c082019050611e976000830189611980565b611ea460208301886119aa565b611eb16040830187611980565b611ebe606083018661194c565b611ecb6080830185611980565b611ed860a0830184611980565b979650505050505050565b600081519050611ef2816116dd565b92915050565b600060208284031215611f0e57611f0d6116c9565b5b6000611f1c84828501611ee3565b91505092915050565b600082825260208201905092915050565b6000819050919050565b600082825260208201905092915050565b6000611f5d8385611f40565b9350611f6a838584611871565b611f73836117b4565b840190509392505050565b6000611f8b848484611f51565b90509392505050565b600080fd5b600080fd5b600080fd5b60008083356001602003843603038112611fc057611fbf611f9e565b5b83810192508235915060208301925067ffffffffffffffff821115611fe857611fe7611f94565b5b600182023603831315611ffe57611ffd611f99565b5b509250929050565b6000602082019050919050565b600061201f8385611f25565b93508360208402850161203184611f36565b8060005b8781101561207757848403895261204c8284611fa3565b612057868284611f7e565b955061206284612006565b935060208b019a505050600181019050612035565b50829750879450505050509392505050565b600060408201905061209e600083018661194c565b81810360208301526120b1818486612013565b9050949350505050565b6120c481611736565b81146120cf57600080fd5b50565b6000815190506120e1816120bb565b92915050565b6000602082840312156120fd576120fc6116c9565b5b600061210b848285016120d2565b91505092915050565b7f53434149546f6b656e4c6f636b65723a20496e76616c6964207369676e61747560008201527f7265730000000000000000000000000000000000000000000000000000000000602082015250565b6000612170602383611b1a565b915061217b82612114565b604082019050919050565b6000602082019050818103600083015261219f81612163565b9050919050565b600081905092915050565b50565b60006121c16000836121a6565b91506121cc826121b1565b600082019050919050565b60006121e2826121b4565b9150819050919050565b7f53434149546f6b656e4c6f636b65723a20455448207472616e7366657220666160008201527f696c656400000000000000000000000000000000000000000000000000000000602082015250565b6000612248602483611b1a565b9150612253826121ec565b604082019050919050565b600060208201905081810360008301526122778161223b565b9050919050565b7f53434149546f6b656e4c6f636b65723a207a65726f2076657269666965720000600082015250565b60006122b4601e83611b1a565b91506122bf8261227e565b602082019050919050565b600060208201905081810360008301526122e3816122a7565b9050919050565b6000819050919050565b600067ffffffffffffffff82169050919050565b600061232361231e612319846122ea565b611645565b6122f4565b9050919050565b61233381612308565b82525050565b600060208201905061234e600083018461232a565b92915050565b7f53434149546f6b656e4c6f636b65723a204d757374206c6f636b203e30000000600082015250565b600061238a601d83611b1a565b915061239582612354565b602082019050919050565b600060208201905081810360008301526123b98161237d565b9050919050565b60006123cb82611976565b91506123d683611976565b92508282019050808211156123ee576123ed611d47565b5b92915050565b60008160601b9050919050565b600061240c826123f4565b9050919050565b600061241e82612401565b9050919050565b6124366124318261176c565b612413565b82525050565b6000819050919050565b61245761245282611976565b61243c565b82525050565b60006124698287612425565b6014820191506124798286612446565b6020820191506124898285612446565b6020820191506124998284612446565b60208201915081905095945050505050565b600081519050919050565b60006124c1826124ab565b6124cb81856121a6565b93506124db818560208601611b2b565b80840191505092915050565b60006124f382846124b6565b91508190509291505056fea264697066735822122072cd4d57024d0b27716661d1c123206a3f709ed3e7e873380be4b3dcf678b33164736f6c634300081c0033",
  "linkReferences": {},
  "deployedLinkReferences": {}
}