{
  "_format": "hh-sol-artifact-1",
  "contractName": "SCAITokenLocker",
  "sourceName": "contracts/SCAITokenLocker.sol",
  "abi": [
    {
      "inputs": [
        {
          "internalType": "address",
          "name": "target",
          "type": "address"
        }
      ],
      "name": "AddressEmptyCode",
      "type": "error"
    },
    {
      "inputs": [
        {
          "internalType": "address",
          "name": "implementation",
          "type": "address"
        }
      ],
      "name": "ERC1967InvalidImplementation",
      "type": "error"
    },
    {
      "inputs": [],
      "name": "ERC1967NonPayable",
      "type": "error"
    },
    {
      "inputs": [],
      "name": "FailedCall",
      "type": "error"
    },
    {
      "inputs": [],
      "name": "InvalidInitialization",
      "type": "error"
    },
    {
      "inputs": [],
      "name": "NotInitializing",
      "type": "error"
    },
    {
      "inputs": [
        {
          "internalType": "address",
          "name": "owner",
          "type": "address"
        }
      ],
      "name": "OwnableInvalidOwner",
      "type": "error"
    },
    {
      "inputs": [
        {
          "internalType": "address",
          "name": "account",
          "type": "address"
        }
      ],
      "name": "OwnableUnauthorizedAccount",
      "type": "error"
    },
    {
      "inputs": [],
      "name": "ReentrancyGuardReentrantCall",
      "type": "error"
    },
    {
      "inputs": [],
      "name": "UUPSUnauthorizedCallContext",
      "type": "error"
    },
    {
      "inputs": [
        {
          "internalType": "bytes32",
          "name": "slot",
          "type": "bytes32"
        }
      ],
      "name": "UUPSUnsupportedProxiableUUID",
      "type": "error"
    },
    {
      "anonymous": false,
      "inputs": [
        {
          "indexed": false,
          "internalType": "uint64",
          "name": "version",
          "type": "uint64"
        }
      ],
      "name": "Initialized",
      "type": "event"
    },
    {
      "anonymous": false,
      "inputs": [
        {
          "indexed": true,
          "internalType": "address",
          "name": "sender",
          "type": "address"
        },
        {
          "indexed": false,
          "internalType": "uint256",
          "name": "amount",
          "type": "uint256"
        },
        {
          "indexed": true,
          "internalType": "bytes32",
          "name": "orderId",
          "type": "bytes32"
        }
      ],
      "name": "Locked",
      "type": "event"
    },
    {
      "anonymous": false,
      "inputs": [
        {
          "indexed": true,
          "internalType": "address",
          "name": "previousOwner",
          "type": "address"
        },
        {
          "indexed": true,
          "internalType": "address",
          "name": "newOwner",
          "type": "address"
        }
      ],
      "name": "OwnershipTransferred",
      "type": "event"
    },
    {
      "anonymous": false,
      "inputs": [
        {
          "indexed": true,
          "internalType": "address",
          "name": "recipient",
          "type": "address"
        },
        {
          "indexed": false,
          "internalType": "uint256",
          "name": "amount",
          "type": "uint256"
        },
        {
          "indexed": true,
          "internalType": "bytes32",
          "name": "orderId",
          "type": "bytes32"
        }
      ],
      "name": "Unlocked",
      "type": "event"
    },
    {
      "anonymous": false,
      "inputs": [
        {
          "indexed": true,
          "internalType": "address",
          "name": "implementation",
          "type": "address"
        }
      ],
      "name": "Upgraded",
      "type": "event"
    },
    {
      "inputs": [],
      "name": "UPGRADE_INTERFACE_VERSION",
      "outputs": [
        {
          "internalType": "string",
          "name": "",
          "type": "string"
        }
      ],
      "stateMutability": "view",
      "type": "function"
    },
    {
      "inputs": [
        {
          "internalType": "bytes32",
          "name": "",
          "type": "bytes32"
        }
      ],
      "name": "executedVAAs",
      "outputs": [
        {
          "internalType": "bool",
          "name": "",
          "type": "bool"
        }
      ],
      "stateMutability": "view",
      "type": "function"
    },
    {
      "inputs": [
        {
          "internalType": "address",
          "name": "_verifier",
          "type": "address"
        },
        {
          "internalType": "address",
          "name": "_validatorRegistry",
          "type": "address"
        }
      ],
      "name": "initialize",
      "outputs": [],
      "stateMutability": "nonpayable",
      "type": "function"
    },
    {
      "inputs": [
        {
          "internalType": "bytes32",
          "name": "orderId",
          "type": "bytes32"
        }
      ],
      "name": "isVAAConsumed",
      "outputs": [
        {
          "internalType": "bool",
          "name": "",
          "type": "bool"
        }
      ],
      "stateMutability": "view",
      "type": "function"
    },
    {
      "inputs": [],
      "name": "lock",
      "outputs": [
        {
          "internalType": "bytes32",
          "name": "",
          "type": "bytes32"
        }
      ],
      "stateMutability": "payable",
      "type": "function"
    },
    {
      "inputs": [
        {
          "internalType": "bytes32",
          "name": "",
          "type": "bytes32"
        }
      ],
      "name": "lockedOrders",
      "outputs": [
        {
          "internalType": "uint256",
          "name": "",
          "type": "uint256"
        }
      ],
      "stateMutability": "view",
      "type": "function"
    },
    {
      "inputs": [],
      "name": "owner",
      "outputs": [
        {
          "internalType": "address",
          "name": "",
          "type": "address"
        }
      ],
      "stateMutability": "view",
      "type": "function"
    },
    {
      "inputs": [],
      "name": "proxiableUUID",
      "outputs": [
        {
          "internalType": "bytes32",
          "name": "",
          "type": "bytes32"
        }
      ],
      "stateMutability": "view",
      "type": "function"
    },
    {
      "inputs": [],
      "name": "renounceOwnership",
      "outputs": [],
      "stateMutability": "nonpayable",
      "type": "function"
    },
    {
      "inputs": [],
      "name": "totalLocked",
      "outputs": [
        {
          "internalType": "uint256",
          "name": "",
          "type": "uint256"
        }
      ],
      "stateMutability": "view",
      "type": "function"
    },
    {
      "inputs": [
        {
          "internalType": "address",
          "name": "newOwner",
          "type": "address"
        }
      ],
      "name": "transferOwnership",
      "outputs": [],
      "stateMutability": "nonpayable",
      "type": "function"
    },
    {
      "inputs": [
        {
          "components": [
            {
              "internalType": "address",
              "name": "recipient",
              "type": "address"
            },
            {
              "internalType": "uint256",
              "name": "amount",
              "type": "uint256"
            },
            {
              "internalType": "bytes32",
              "name": "orderId",
              "type": "bytes32"
            },
            {
              "internalType": "bytes[]",
              "name": "signatures",
              "type": "bytes[]"
            },
            {
              "internalType": "uint8",
              "name": "vaaVersion",
              "type": "uint8"
            },
            {
              "internalType": "uint32",
              "name": "guardianSetIndex",
              "type": "uint32"
            },
            {
              "internalType": "uint16",
              "name": "emitterChainId",
              "type": "uint16"
            },
            {
              "internalType": "bytes32",
              "name": "emitterAddress",
              "type": "bytes32"
            },
            {
              "internalType": "uint64",
              "name": "sequence",
              "type": "uint64"
            },
            {
              "internalType": "bytes",
              "name": "payload",
              "type": "bytes"
            }
          ],
          "internalType": "struct SCAITokenLocker.UnlockParams",
          "name": "p",
          "type": "tuple"
        }
      ],
      "name": "unlock",
      "outputs": [],
      "stateMutability": "nonpayable",
      "type": "function"
    },
    {
      "inputs": [
        {
          "internalType": "address",
          "name": "newImplementation",
          "type": "address"
        },
        {
          "internalType": "bytes",
          "name": "data",
          "type": "bytes"
        }
      ],
      "name": "upgradeToAndCall",
      "outputs": [],
      "stateMutability": "payable",
      "type": "function"
    },
    {
      "inputs": [],
      "name": "validatorRegistry",
      "outputs": [
        {
          "internalType": "contract ValidatorRegistry",
          "name": "",
          "type": "address"
        }
      ],
      "stateMutability": "view",
      "type": "function"
    },
    {
      "inputs": [],
      "name": "verifier",
      "outputs": [
        {
          "internalType": "contract MessageVerifier",
          "name": "",
          "type": "address"
        }
      ],
      "stateMutability": "view",
      "type": "function"
    },
    {
      "stateMutability": "payable",
      "type": "receive"
    }
  ],
  "bytecode": "0x60a06040523073ffffffffffffffffffffffffffffffffffffffff1660809073ffffffffffffffffffffffffffffffffffffffff16815250348015604257600080fd5b50608051612a4061006c60003960008181610f1f01528181610f74015261112f0152612a406000f3fe6080604052600436106100ec5760003560e01c80638da5cb5b1161008a578063f2fde38b11610059578063f2fde38b146102e2578063f376ebbb1461030b578063f83d08ba14610336578063f8bfa80d14610354576100f3565b80638da5cb5b14610212578063ad3cb1cc1461023d578063bd91cdc814610268578063e2d43ccb146102a5576100f3565b806352d1902d116100c657806352d1902d146101685780635689141214610193578063715018a6146101be57806380eb3239146101d5576100f3565b80632b7ac3f3146100f8578063485cc955146101235780634f1ef2861461014c576100f3565b366100f357005b600080fd5b34801561010457600080fd5b5061010d61037d565b60405161011a91906118c0565b60405180910390f35b34801561012f57600080fd5b5061014a6004803603810190610145919061192d565b6103a3565b005b61016660048036038101906101619190611ab3565b61069b565b005b34801561017457600080fd5b5061017d6106ba565b60405161018a9190611b28565b60405180910390f35b34801561019f57600080fd5b506101a86106ed565b6040516101b59190611b5c565b60405180910390f35b3480156101ca57600080fd5b506101d36106f3565b005b3480156101e157600080fd5b506101fc60048036038101906101f79190611ba3565b610707565b6040516102099190611beb565b60405180910390f35b34801561021e57600080fd5b50610227610731565b6040516102349190611c15565b60405180910390f35b34801561024957600080fd5b50610252610769565b60405161025f9190611caf565b60405180910390f35b34801561027457600080fd5b5061028f600480360381019061028a9190611ba3565b6107a2565b60405161029c9190611b5c565b60405180910390f35b3480156102b157600080fd5b506102cc60048036038101906102c79190611ba3565b6107ba565b6040516102d99190611beb565b60405180910390f35b3480156102ee57600080fd5b5061030960048036038101906103049190611cd1565b6107da565b005b34801561031757600080fd5b50610320610860565b60405161032d9190611d1f565b60405180910390f35b61033e610886565b60405161034b9190611b28565b60405180910390f35b34801561036057600080fd5b5061037b60048036038101906103769190611d5f565b610992565b005b600360009054906101000a900473ffffffffffffffffffffffffffffffffffffffff1681565b60006103ad610ee3565b905060008160000160089054906101000a900460ff1615905060008260000160009054906101000a900467ffffffffffffffff1690506000808267ffffffffffffffff161480156103fb5750825b9050600060018367ffffffffffffffff16148015610430575060003073ffffffffffffffffffffffffffffffffffffffff163b145b90508115801561043e575080155b15610475576040517ff92ee8a900000000000000000000000000000000000000000000000000000000815260040160405180910390fd5b60018560000160006101000a81548167ffffffffffffffff021916908367ffffffffffffffff16021790555083156104c55760018560000160086101000a81548160ff0219169083151502179055505b600073ffffffffffffffffffffffffffffffffffffffff168773ffffffffffffffffffffffffffffffffffffffff1603610534576040517f08c379a000000000000000000000000000000000000000000000000000000000815260040161052b90611df4565b60405180910390fd5b600073ffffffffffffffffffffffffffffffffffffffff168673ffffffffffffffffffffffffffffffffffffffff16036105a3576040517f08c379a000000000000000000000000000000000000000000000000000000000815260040161059a90611e86565b60405180910390fd5b86600360006101000a81548173ffffffffffffffffffffffffffffffffffffffff021916908373ffffffffffffffffffffffffffffffffffffffff16021790555085600460006101000a81548173ffffffffffffffffffffffffffffffffffffffff021916908373ffffffffffffffffffffffffffffffffffffffff16021790555061062e33610ef7565b610636610f0b565b83156106925760008560000160086101000a81548160ff0219169083151502179055507fc7f505b2f371ae2175ee4913f4499e1f2633a7b5936321eed1cdaeb6115181d260016040516106899190611ef5565b60405180910390a15b50505050505050565b6106a3610f1d565b6106ac82611003565b6106b6828261100e565b5050565b60006106c461112d565b7f360894a13ba1a3210667c828492db98dca3e2076cc3735a920a3ca505d382bbc60001b905090565b60005481565b6106fb6111b4565b610705600061123b565b565b60006002600083815260200190815260200160002060009054906101000a900460ff169050919050565b60008061073c611312565b90508060000160009054906101000a900473ffffffffffffffffffffffffffffffffffffffff1691505090565b6040518060400160405280600581526020017f352e302e3000000000000000000000000000000000000000000000000000000081525081565b60016020528060005260406000206000915090505481565b60026020528060005260406000206000915054906101000a900460ff1681565b6107e26111b4565b600073ffffffffffffffffffffffffffffffffffffffff168173ffffffffffffffffffffffffffffffffffffffff16036108545760006040517f1e4fbdf700000000000000000000000000000000000000000000000000000000815260040161084b9190611c15565b60405180910390fd5b61085d8161123b565b50565b600460009054906101000a900473ffffffffffffffffffffffffffffffffffffffff1681565b600061089061133a565b600034116108d3576040517f08c379a00000000000000000000000000000000000000000000000000000000081526004016108ca90611f5c565b60405180910390fd5b346000808282546108e49190611fab565b925050819055506000333442436040516020016109049493929190612048565b604051602081830303815290604052805190602001209050346001600083815260200190815260200160002081905550803373ffffffffffffffffffffffffffffffffffffffff167f8e29de780780a3b570e950331831b01eb83f31afcf439d8c207f7fa1326d58673460405161097b9190611b5c565b60405180910390a38091505061098f611391565b90565b61099a61133a565b600073ffffffffffffffffffffffffffffffffffffffff168160000160208101906109c59190611cd1565b73ffffffffffffffffffffffffffffffffffffffff1603610a1b576040517f08c379a0000000000000000000000000000000000000000000000000000000008152600401610a12906120e2565b60405180910390fd5b6000816020013511610a62576040517f08c379a0000000000000000000000000000000000000000000000000000000008152600401610a599061214e565b60405180910390fd5b600260008260400135815260200190815260200160002060009054906101000a900460ff1615610ac7576040517f08c379a0000000000000000000000000000000000000000000000000000000008152600401610abe906121e0565b60405180910390fd5b600060016000836040013581526020019081526020016000205490508160200135811015610b2a576040517f08c379a0000000000000000000000000000000000000000000000000000000008152600401610b2190612272565b60405180910390fd5b6000600360009054906101000a900473ffffffffffffffffffffffffffffffffffffffff1673ffffffffffffffffffffffffffffffffffffffff16636c18b488846080016020810190610b7d91906122cb565b8560a0016020810190610b909190612334565b8660c0016020810190610ba3919061239b565b8760e0013588610100016020810190610bbc91906123f4565b89806101200190610bcd9190612430565b6040518863ffffffff1660e01b8152600401610bef979695949392919061250d565b602060405180830381865afa158015610c0c573d6000803e3d6000fd5b505050506040513d601f19601f82011682018060405250810190610c30919061258c565b9050600460009054906101000a900473ffffffffffffffffffffffffffffffffffffffff1673ffffffffffffffffffffffffffffffffffffffff1663fd3a12f68460a0016020810190610c839190612334565b83868060600190610c9491906125b9565b6040518563ffffffff1660e01b8152600401610cb39493929190612780565b602060405180830381865afa158015610cd0573d6000803e3d6000fd5b505050506040513d601f19601f82011682018060405250810190610cf491906127ec565b610d33576040517f08c379a0000000000000000000000000000000000000000000000000000000008152600401610d2a9061288b565b60405180910390fd5b6001600260008560400135815260200190815260200160002060006101000a81548160ff0219169083151502179055508260200135600080828254610d7891906128ab565b92505081905550826020013582610d8f91906128ab565b6001600085604001358152602001908152602001600020819055506000836000016020810190610dbf9190611cd1565b73ffffffffffffffffffffffffffffffffffffffff168460200135604051610de690612910565b60006040518083038185875af1925050503d8060008114610e23576040519150601f19603f3d011682016040523d82523d6000602084013e610e28565b606091505b5050905080610e6c576040517f08c379a0000000000000000000000000000000000000000000000000000000008152600401610e6390612997565b60405180910390fd5b8360400135846000016020810190610e849190611cd1565b73ffffffffffffffffffffffffffffffffffffffff167f0789f9c65a83ea68c24fd9e4ddf905e92e29f40da2c579072f6426d28e85ca138660200135604051610ecd9190611b5c565b60405180910390a3505050610ee0611391565b50565b600080610eee6113aa565b90508091505090565b610eff6113d5565b610f0881611415565b50565b610f136113d5565b610f1b61149b565b565b7f000000000000000000000000000000000000000000000000000000000000000073ffffffffffffffffffffffffffffffffffffffff163073ffffffffffffffffffffffffffffffffffffffff161480610fca57507f000000000000000000000000000000000000000000000000000000000000000073ffffffffffffffffffffffffffffffffffffffff16610fb16114bc565b73ffffffffffffffffffffffffffffffffffffffff1614155b15611001576040517fe07c8dba00000000000000000000000000000000000000000000000000000000815260040160405180910390fd5b565b61100b6111b4565b50565b8173ffffffffffffffffffffffffffffffffffffffff166352d1902d6040518163ffffffff1660e01b8152600401602060405180830381865afa92505050801561107657506040513d601f19601f82011682018060405250810190611073919061258c565b60015b6110b757816040517f4c9c8ce30000000000000000000000000000000000000000000000000000000081526004016110ae9190611c15565b60405180910390fd5b7f360894a13ba1a3210667c828492db98dca3e2076cc3735a920a3ca505d382bbc60001b811461111e57806040517faa1d49a40000000000000000000000000000000000000000000000000000000081526004016111159190611b28565b60405180910390fd5b6111288383611513565b505050565b7f000000000000000000000000000000000000000000000000000000000000000073ffffffffffffffffffffffffffffffffffffffff163073ffffffffffffffffffffffffffffffffffffffff16146111b2576040517fe07c8dba00000000000000000000000000000000000000000000000000000000815260040160405180910390fd5b565b6111bc611586565b73ffffffffffffffffffffffffffffffffffffffff166111da610731565b73ffffffffffffffffffffffffffffffffffffffff1614611239576111fd611586565b6040517f118cdaa70000000000000000000000000000000000000000000000000000000081526004016112309190611c15565b60405180910390fd5b565b6000611245611312565b905060008160000160009054906101000a900473ffffffffffffffffffffffffffffffffffffffff169050828260000160006101000a81548173ffffffffffffffffffffffffffffffffffffffff021916908373ffffffffffffffffffffffffffffffffffffffff1602179055508273ffffffffffffffffffffffffffffffffffffffff168173ffffffffffffffffffffffffffffffffffffffff167f8be0079c531659141344cd1fd0a4f28419497f9722a3daafe3b4186f6b6457e060405160405180910390a3505050565b60007f9016d09d72d40fdae2fd8ceac6b6234c7706214fd39c1cd1e609a0528c199300905090565b600061134461158e565b90506002816000015403611384576040517f3ee5aeb500000000000000000000000000000000000000000000000000000000815260040160405180910390fd5b6002816000018190555050565b600061139b61158e565b90506001816000018190555050565b60007ff0c57e16840df040f15088dc2f81fe391c3923bec73e23a9662efc9c229c6a0060001b905090565b6113dd6115b6565b611413576040517fd7e6bcf800000000000000000000000000000000000000000000000000000000815260040160405180910390fd5b565b61141d6113d5565b600073ffffffffffffffffffffffffffffffffffffffff168173ffffffffffffffffffffffffffffffffffffffff160361148f5760006040517f1e4fbdf70000000000000000000000000000000000000000000000000000000081526004016114869190611c15565b60405180910390fd5b6114988161123b565b50565b6114a36113d5565b60006114ad61158e565b90506001816000018190555050565b60006114ea7f360894a13ba1a3210667c828492db98dca3e2076cc3735a920a3ca505d382bbc60001b6115d6565b60000160009054906101000a900473ffffffffffffffffffffffffffffffffffffffff16905090565b61151c826115e0565b8173ffffffffffffffffffffffffffffffffffffffff167fbc7cd75a20ee27fd9adebab32041f755214dbc6bffa90cc0225b39da2e5c2d3b60405160405180910390a26000815111156115795761157382826116ad565b50611582565b611581611731565b5b5050565b600033905090565b60007f9b779b17422d0df92223018b32b4d1fa46e071723d6817e2486d003becc55f00905090565b60006115c0610ee3565b60000160089054906101000a900460ff16905090565b6000819050919050565b60008173ffffffffffffffffffffffffffffffffffffffff163b0361163c57806040517f4c9c8ce30000000000000000000000000000000000000000000000000000000081526004016116339190611c15565b60405180910390fd5b806116697f360894a13ba1a3210667c828492db98dca3e2076cc3735a920a3ca505d382bbc60001b6115d6565b60000160006101000a81548173ffffffffffffffffffffffffffffffffffffffff021916908373ffffffffffffffffffffffffffffffffffffffff16021790555050565b60606000808473ffffffffffffffffffffffffffffffffffffffff16846040516116d791906129f3565b600060405180830381855af49150503d8060008114611712576040519150601f19603f3d011682016040523d82523d6000602084013e611717565b606091505b509150915061172785838361176e565b9250505092915050565b600034111561176c576040517fb398979f00000000000000000000000000000000000000000000000000000000815260040160405180910390fd5b565b6060826117835761177e826117fd565b6117f5565b600082511480156117ab575060008473ffffffffffffffffffffffffffffffffffffffff163b145b156117ed57836040517f9996b3150000000000000000000000000000000000000000000000000000000081526004016117e49190611c15565b60405180910390fd5b8190506117f6565b5b9392505050565b60008151111561180f57805160208201fd5b6040517fd6bda27500000000000000000000000000000000000000000000000000000000815260040160405180910390fd5b600073ffffffffffffffffffffffffffffffffffffffff82169050919050565b6000819050919050565b600061188661188161187c84611841565b611861565b611841565b9050919050565b60006118988261186b565b9050919050565b60006118aa8261188d565b9050919050565b6118ba8161189f565b82525050565b60006020820190506118d560008301846118b1565b92915050565b6000604051905090565b600080fd5b600080fd5b60006118fa82611841565b9050919050565b61190a816118ef565b811461191557600080fd5b50565b60008135905061192781611901565b92915050565b60008060408385031215611944576119436118e5565b5b600061195285828601611918565b925050602061196385828601611918565b9150509250929050565b600080fd5b600080fd5b6000601f19601f8301169050919050565b7f4e487b7100000000000000000000000000000000000000000000000000000000600052604160045260246000fd5b6119c082611977565b810181811067ffffffffffffffff821117156119df576119de611988565b5b80604052505050565b60006119f26118db565b90506119fe82826119b7565b919050565b600067ffffffffffffffff821115611a1e57611a1d611988565b5b611a2782611977565b9050602081019050919050565b82818337600083830152505050565b6000611a56611a5184611a03565b6119e8565b905082815260208101848484011115611a7257611a71611972565b5b611a7d848285611a34565b509392505050565b600082601f830112611a9a57611a9961196d565b5b8135611aaa848260208601611a43565b91505092915050565b60008060408385031215611aca57611ac96118e5565b5b6000611ad885828601611918565b925050602083013567ffffffffffffffff811115611af957611af86118ea565b5b611b0585828601611a85565b9150509250929050565b6000819050919050565b611b2281611b0f565b82525050565b6000602082019050611b3d6000830184611b19565b92915050565b6000819050919050565b611b5681611b43565b82525050565b6000602082019050611b716000830184611b4d565b92915050565b611b8081611b0f565b8114611b8b57600080fd5b50565b600081359050611b9d81611b77565b92915050565b600060208284031215611bb957611bb86118e5565b5b6000611bc784828501611b8e565b91505092915050565b60008115159050919050565b611be581611bd0565b82525050565b6000602082019050611c006000830184611bdc565b92915050565b611c0f816118ef565b82525050565b6000602082019050611c2a6000830184611c06565b92915050565b600081519050919050565b600082825260208201905092915050565b60005b83811015611c6a578082015181840152602081019050611c4f565b60008484015250505050565b6000611c8182611c30565b611c8b8185611c3b565b9350611c9b818560208601611c4c565b611ca481611977565b840191505092915050565b60006020820190508181036000830152611cc98184611c76565b905092915050565b600060208284031215611ce757611ce66118e5565b5b6000611cf584828501611918565b91505092915050565b6000611d098261188d565b9050919050565b611d1981611cfe565b82525050565b6000602082019050611d346000830184611d10565b92915050565b600080fd5b60006101408284031215611d5657611d55611d3a565b5b81905092915050565b600060208284031215611d7557611d746118e5565b5b600082013567ffffffffffffffff811115611d9357611d926118ea565b5b611d9f84828501611d3f565b91505092915050565b7f53434149546f6b656e4c6f636b65723a207a65726f2076657269666965720000600082015250565b6000611dde601e83611c3b565b9150611de982611da8565b602082019050919050565b60006020820190508181036000830152611e0d81611dd1565b9050919050565b7f53434149546f6b656e4c6f636b65723a207a65726f2076616c696461746f725260008201527f6567697374727900000000000000000000000000000000000000000000000000602082015250565b6000611e70602783611c3b565b9150611e7b82611e14565b604082019050919050565b60006020820190508181036000830152611e9f81611e63565b9050919050565b6000819050919050565b600067ffffffffffffffff82169050919050565b6000611edf611eda611ed584611ea6565b611861565b611eb0565b9050919050565b611eef81611ec4565b82525050565b6000602082019050611f0a6000830184611ee6565b92915050565b7f53434149546f6b656e4c6f636b65723a204d757374206c6f636b203e30000000600082015250565b6000611f46601d83611c3b565b9150611f5182611f10565b602082019050919050565b60006020820190508181036000830152611f7581611f39565b9050919050565b7f4e487b7100000000000000000000000000000000000000000000000000000000600052601160045260246000fd5b6000611fb682611b43565b9150611fc183611b43565b9250828201905080821115611fd957611fd8611f7c565b5b92915050565b60008160601b9050919050565b6000611ff782611fdf565b9050919050565b600061200982611fec565b9050919050565b61202161201c826118ef565b611ffe565b82525050565b6000819050919050565b61204261203d82611b43565b612027565b82525050565b60006120548287612010565b6014820191506120648286612031565b6020820191506120748285612031565b6020820191506120848284612031565b60208201915081905095945050505050565b7f53434149546f6b656e4c6f636b65723a207a65726f20726563697069656e7400600082015250565b60006120cc601f83611c3b565b91506120d782612096565b602082019050919050565b600060208201905081810360008301526120fb816120bf565b9050919050565b7f53434149546f6b656e4c6f636b65723a207a65726f20616d6f756e7400000000600082015250565b6000612138601c83611c3b565b915061214382612102565b602082019050919050565b600060208201905081810360008301526121678161212b565b9050919050565b7f53434149546f6b656e4c6f636b65723a20416c7265616479206578656375746560008201527f6400000000000000000000000000000000000000000000000000000000000000602082015250565b60006121ca602183611c3b565b91506121d58261216e565b604082019050919050565b600060208201905081810360008301526121f9816121bd565b9050919050565b7f53434149546f6b656e4c6f636b65723a20496e73756666696369656e74206c6f60008201527f636b65642066756e647300000000000000000000000000000000000000000000602082015250565b600061225c602a83611c3b565b915061226782612200565b604082019050919050565b6000602082019050818103600083015261228b8161224f565b9050919050565b600060ff82169050919050565b6122a881612292565b81146122b357600080fd5b50565b6000813590506122c58161229f565b92915050565b6000602082840312156122e1576122e06118e5565b5b60006122ef848285016122b6565b91505092915050565b600063ffffffff82169050919050565b612311816122f8565b811461231c57600080fd5b50565b60008135905061232e81612308565b92915050565b60006020828403121561234a576123496118e5565b5b60006123588482850161231f565b91505092915050565b600061ffff82169050919050565b61237881612361565b811461238357600080fd5b50565b6000813590506123958161236f565b92915050565b6000602082840312156123b1576123b06118e5565b5b60006123bf84828501612386565b91505092915050565b6123d181611eb0565b81146123dc57600080fd5b50565b6000813590506123ee816123c8565b92915050565b60006020828403121561240a576124096118e5565b5b6000612418848285016123df565b91505092915050565b600080fd5b600080fd5b600080fd5b6000808335600160200384360303811261244d5761244c612421565b5b80840192508235915067ffffffffffffffff82111561246f5761246e612426565b5b60208301925060018202360383131561248b5761248a61242b565b5b509250929050565b61249c81612292565b82525050565b6124ab816122f8565b82525050565b6124ba81612361565b82525050565b6124c981611eb0565b82525050565b600082825260208201905092915050565b60006124ec83856124cf565b93506124f9838584611a34565b61250283611977565b840190509392505050565b600060c082019050612522600083018a612493565b61252f60208301896124a2565b61253c60408301886124b1565b6125496060830187611b19565b61255660808301866124c0565b81810360a08301526125698184866124e0565b905098975050505050505050565b60008151905061258681611b77565b92915050565b6000602082840312156125a2576125a16118e5565b5b60006125b084828501612577565b91505092915050565b600080833560016020038436030381126125d6576125d5612421565b5b80840192508235915067ffffffffffffffff8211156125f8576125f7612426565b5b6020830192506020820236038313156126145761261361242b565b5b509250929050565b600082825260208201905092915050565b6000819050919050565b600082825260208201905092915050565b60006126548385612637565b9350612661838584611a34565b61266a83611977565b840190509392505050565b6000612682848484612648565b90509392505050565b600080fd5b600080fd5b600080fd5b600080833560016020038436030381126126b7576126b6612695565b5b83810192508235915060208301925067ffffffffffffffff8211156126df576126de61268b565b5b6001820236038313156126f5576126f4612690565b5b509250929050565b6000602082019050919050565b6000612716838561261c565b9350836020840285016127288461262d565b8060005b8781101561276e578484038952612743828461269a565b61274e868284612675565b9550612759846126fd565b935060208b019a50505060018101905061272c565b50829750879450505050509392505050565b600060608201905061279560008301876124a2565b6127a26020830186611b19565b81810360408301526127b581848661270a565b905095945050505050565b6127c981611bd0565b81146127d457600080fd5b50565b6000815190506127e6816127c0565b92915050565b600060208284031215612802576128016118e5565b5b6000612810848285016127d7565b91505092915050565b7f53434149546f6b656e4c6f636b65723a20496e76616c6964207369676e61747560008201527f7265730000000000000000000000000000000000000000000000000000000000602082015250565b6000612875602383611c3b565b915061288082612819565b604082019050919050565b600060208201905081810360008301526128a481612868565b9050919050565b60006128b682611b43565b91506128c183611b43565b92508282039050818111156128d9576128d8611f7c565b5b92915050565b600081905092915050565b50565b60006128fa6000836128df565b9150612905826128ea565b600082019050919050565b600061291b826128ed565b9150819050919050565b7f53434149546f6b656e4c6f636b65723a20455448207472616e7366657220666160008201527f696c656400000000000000000000000000000000000000000000000000000000602082015250565b6000612981602483611c3b565b915061298c82612925565b604082019050919050565b600060208201905081810360008301526129b081612974565b9050919050565b600081519050919050565b60006129cd826129b7565b6129d781856128df565b93506129e7818560208601611c4c565b80840191505092915050565b60006129ff82846129c2565b91508190509291505056fea2646970667358221220fb98aa5fe4f8a9f56914b25b5401787ccc212b1fe8c38251e65d9e183598af0164736f6c634300081c0033",
  "linkReferences": {},
  "deployedLinkReferences": {}
}