{
  "_format": "hh-sol-artifact-1",
  "contractName": "MessageVerifier",
  "sourceName": "contracts/MessageVerifier.sol",
  "abi": [
    {
      "inputs": [
        {
          "internalType": "bytes",
          "name": "payload",
          "type": "bytes"
        }
      ],
      "name": "hashPayload",
      "outputs": [
        {
          "internalType": "bytes32",
          "name": "",
          "type": "bytes32"
        }
      ],
      "stateMutability": "pure",
      "type": "function"
    },
    {
      "inputs": [
        {
          "internalType": "uint8",
          "name": "version",
          "type": "uint8"
        },
        {
          "internalType": "uint32",
          "name": "guardianSetIndex",
          "type": "uint32"
        },
        {
          "internalType": "uint16",
          "name": "emitterChainId",
          "type": "uint16"
        },
        {
          "internalType": "bytes32",
          "name": "emitterAddress",
          "type": "bytes32"
        },
        {
          "internalType": "uint64",
          "name": "sequence",
          "type": "uint64"
        },
        {
          "internalType": "bytes",
          "name": "payload",
          "type": "bytes"
        }
      ],
      "name": "hashVAA",
      "outputs": [
        {
          "internalType": "bytes32",
          "name": "",
          "type": "bytes32"
        }
      ],
      "stateMutability": "pure",
      "type": "function"
    }
  ],
  "bytecode": "0x6080604052348015600f57600080fd5b506106128061001f6000396000f3fe608060405234801561001057600080fd5b50600436106100365760003560e01c80636c18b4881461003b578063c58b0a4d1461006b575b600080fd5b61005560048036038101906100509190610299565b61009b565b6040516100629190610357565b60405180910390f35b61008560048036038101906100809190610372565b6100e3565b6040516100929190610357565b60405180910390f35b6000600160f81b888888888888886040516020016100c0989796959493929190610544565b604051602081830303815290604052805190602001209050979650505050505050565b600082826040516100f59291906105c3565b6040518091039020905092915050565b600080fd5b600080fd5b600060ff82169050919050565b6101258161010f565b811461013057600080fd5b50565b6000813590506101428161011c565b92915050565b600063ffffffff82169050919050565b61016181610148565b811461016c57600080fd5b50565b60008135905061017e81610158565b92915050565b600061ffff82169050919050565b61019b81610184565b81146101a657600080fd5b50565b6000813590506101b881610192565b92915050565b6000819050919050565b6101d1816101be565b81146101dc57600080fd5b50565b6000813590506101ee816101c8565b92915050565b600067ffffffffffffffff82169050919050565b610211816101f4565b811461021c57600080fd5b50565b60008135905061022e81610208565b92915050565b600080fd5b600080fd5b600080fd5b60008083601f84011261025957610258610234565b5b8235905067ffffffffffffffff81111561027657610275610239565b5b6020830191508360018202830111156102925761029161023e565b5b9250929050565b600080600080600080600060c0888a0312156102b8576102b7610105565b5b60006102c68a828b01610133565b97505060206102d78a828b0161016f565b96505060406102e88a828b016101a9565b95505060606102f98a828b016101df565b945050608061030a8a828b0161021f565b93505060a088013567ffffffffffffffff81111561032b5761032a61010a565b5b6103378a828b01610243565b925092505092959891949750929550565b610351816101be565b82525050565b600060208201905061036c6000830184610348565b92915050565b6000806020838503121561038957610388610105565b5b600083013567ffffffffffffffff8111156103a7576103a661010a565b5b6103b385828601610243565b92509250509250929050565b60007fff0000000000000000000000000000000000000000000000000000000000000082169050919050565b6000819050919050565b610406610401826103bf565b6103eb565b82525050565b60008160f81b9050919050565b60006104248261040c565b9050919050565b61043c6104378261010f565b610419565b82525050565b60008160e01b9050919050565b600061045a82610442565b9050919050565b61047261046d82610148565b61044f565b82525050565b60008160f01b9050919050565b600061049082610478565b9050919050565b6104a86104a382610184565b610485565b82525050565b6000819050919050565b6104c96104c4826101be565b6104ae565b82525050565b60008160c01b9050919050565b60006104e7826104cf565b9050919050565b6104ff6104fa826101f4565b6104dc565b82525050565b600081905092915050565b82818337600083830152505050565b600061052b8385610505565b9350610538838584610510565b82840190509392505050565b6000610550828b6103f5565b600182019150610560828a61042b565b6001820191506105708289610461565b6004820191506105808288610497565b60028201915061059082876104b8565b6020820191506105a082866104ee565b6008820191506105b182848661051f565b91508190509998505050505050505050565b60006105d082848661051f565b9150819050939250505056fea2646970667358221220501067966863b66fd0feb1cd606a3a6078dd57add5b5c0d660c2f1986377c65d64736f6c634300081c0033",
  "linkReferences": {},
  "deployedLinkReferences": {}
}