{
  "_format": "hh-sol-artifact-1",
  "contractName": "MessageVerifier",
  "sourceName": "contracts/MessageVerifier.sol",
  "abi": [
    {
      "inputs": [
        {
          "internalType": "address",
          "name": "_validatorRegistry",
          "type": "address"
        }
      ],
      "stateMutability": "nonpayable",
      "type": "constructor"
    },
    {
      "inputs": [
        {
          "internalType": "uint256",
          "name": "chainId",
          "type": "uint256"
        },
        {
          "internalType": "address",
          "name": "recipient",
          "type": "address"
        },
        {
          "internalType": "uint256",
          "name": "amount",
          "type": "uint256"
        },
        {
          "internalType": "bytes32",
          "name": "orderId",
          "type": "bytes32"
        },
        {
          "internalType": "uint256",
          "name": "nonce",
          "type": "uint256"
        },
        {
          "internalType": "uint256",
          "name": "timestamp",
          "type": "uint256"
        }
      ],
      "name": "hashMessage",
      "outputs": [
        {
          "internalType": "bytes32",
          "name": "",
          "type": "bytes32"
        }
      ],
      "stateMutability": "pure",
      "type": "function"
    },
    {
      "inputs": [],
      "name": "validatorRegistry",
      "outputs": [
        {
          "internalType": "contract IValidatorRegistry",
          "name": "",
          "type": "address"
        }
      ],
      "stateMutability": "view",
      "type": "function"
    },
    {
      "inputs": [
        {
          "internalType": "bytes32",
          "name": "message",
          "type": "bytes32"
        },
        {
          "internalType": "bytes[]",
          "name": "signatures",
          "type": "bytes[]"
        }
      ],
      "name": "verifySignatures",
      "outputs": [
        {
          "internalType": "bool",
          "name": "",
          "type": "bool"
        }
      ],
      "stateMutability": "view",
      "type": "function"
    }
  ],
  "bytecode": "0x608060405234801561001057600080fd5b50604051610abb380380610abb8339818101604052810190610032919061014a565b600073ffffffffffffffffffffffffffffffffffffffff168173ffffffffffffffffffffffffffffffffffffffff16036100a1576040517f08c379a0000000000000000000000000000000000000000000000000000000008152600401610098906101d4565b60405180910390fd5b806000806101000a81548173ffffffffffffffffffffffffffffffffffffffff021916908373ffffffffffffffffffffffffffffffffffffffff160217905550506101f4565b600080fd5b600073ffffffffffffffffffffffffffffffffffffffff82169050919050565b6000610117826100ec565b9050919050565b6101278161010c565b811461013257600080fd5b50565b6000815190506101448161011e565b92915050565b6000602082840312156101605761015f6100e7565b5b600061016e84828501610135565b91505092915050565b600082825260208201905092915050565b7f4d65737361676556657269666965723a207a65726f2072656769737472790000600082015250565b60006101be601e83610177565b91506101c982610188565b602082019050919050565b600060208201905081810360008301526101ed816101b1565b9050919050565b6108b8806102036000396000f3fe608060405234801561001057600080fd5b50600436106100415760003560e01c80630a5c54b3146100465780632bdaeb3b14610076578063f376ebbb146100a6575b600080fd5b610060600480360381019061005b91906102a1565b6100c4565b60405161006d919061031c565b60405180910390f35b610090600480360381019061008b91906103cb565b61016e565b60405161009d9190610467565b60405180910390f35b6100ae6101d8565b6040516100bb91906104e1565b60405180910390f35b60008060009054906101000a900473ffffffffffffffffffffffffffffffffffffffff1673ffffffffffffffffffffffffffffffffffffffff16630a5c54b38585856040518463ffffffff1660e01b815260040161012493929190610680565b602060405180830381865afa158015610141573d6000803e3d6000fd5b505050506040513d601f19601f8201168201806040525081019061016591906106de565b90509392505050565b60008087878787878760405160200161018c96959493929190610795565b604051602081830303815290604052805190602001209050806040516020016101b5919061085c565b604051602081830303815290604052805190602001209150509695505050505050565b60008054906101000a900473ffffffffffffffffffffffffffffffffffffffff1681565b600080fd5b600080fd5b6000819050919050565b61021981610206565b811461022457600080fd5b50565b60008135905061023681610210565b92915050565b600080fd5b600080fd5b600080fd5b60008083601f8401126102615761026061023c565b5b8235905067ffffffffffffffff81111561027e5761027d610241565b5b60208301915083602082028301111561029a57610299610246565b5b9250929050565b6000806000604084860312156102ba576102b96101fc565b5b60006102c886828701610227565b935050602084013567ffffffffffffffff8111156102e9576102e8610201565b5b6102f58682870161024b565b92509250509250925092565b60008115159050919050565b61031681610301565b82525050565b6000602082019050610331600083018461030d565b92915050565b6000819050919050565b61034a81610337565b811461035557600080fd5b50565b60008135905061036781610341565b92915050565b600073ffffffffffffffffffffffffffffffffffffffff82169050919050565b60006103988261036d565b9050919050565b6103a88161038d565b81146103b357600080fd5b50565b6000813590506103c58161039f565b92915050565b60008060008060008060c087890312156103e8576103e76101fc565b5b60006103f689828a01610358565b965050602061040789828a016103b6565b955050604061041889828a01610358565b945050606061042989828a01610227565b935050608061043a89828a01610358565b92505060a061044b89828a01610358565b9150509295509295509295565b61046181610206565b82525050565b600060208201905061047c6000830184610458565b92915050565b6000819050919050565b60006104a76104a261049d8461036d565b610482565b61036d565b9050919050565b60006104b98261048c565b9050919050565b60006104cb826104ae565b9050919050565b6104db816104c0565b82525050565b60006020820190506104f660008301846104d2565b92915050565b600082825260208201905092915050565b6000819050919050565b600082825260208201905092915050565b82818337600083830152505050565b6000601f19601f8301169050919050565b60006105548385610517565b9350610561838584610528565b61056a83610537565b840190509392505050565b6000610582848484610548565b90509392505050565b600080fd5b600080fd5b600080fd5b600080833560016020038436030381126105b7576105b6610595565b5b83810192508235915060208301925067ffffffffffffffff8211156105df576105de61058b565b5b6001820236038313156105f5576105f4610590565b5b509250929050565b6000602082019050919050565b600061061683856104fc565b9350836020840285016106288461050d565b8060005b8781101561066e578484038952610643828461059a565b61064e868284610575565b9550610659846105fd565b935060208b019a50505060018101905061062c565b50829750879450505050509392505050565b60006040820190506106956000830186610458565b81810360208301526106a881848661060a565b9050949350505050565b6106bb81610301565b81146106c657600080fd5b50565b6000815190506106d8816106b2565b92915050565b6000602082840312156106f4576106f36101fc565b5b6000610702848285016106c9565b91505092915050565b6000819050919050565b61072661072182610337565b61070b565b82525050565b60008160601b9050919050565b60006107448261072c565b9050919050565b600061075682610739565b9050919050565b61076e6107698261038d565b61074b565b82525050565b6000819050919050565b61078f61078a82610206565b610774565b82525050565b60006107a18289610715565b6020820191506107b1828861075d565b6014820191506107c18287610715565b6020820191506107d1828661077e565b6020820191506107e18285610715565b6020820191506107f18284610715565b602082019150819050979650505050505050565b600081905092915050565b7f19457468657265756d205369676e6564204d6573736167653a0a333200000000600082015250565b6000610846601c83610805565b915061085182610810565b601c82019050919050565b600061086782610839565b9150610873828461077e565b6020820191508190509291505056fea264697066735822122037d92870e4633d097e58a04b911eb5797c9e1fcc819fb1436d851d661895fff964736f6c634300081c0033",
  "linkReferences": {},
  "deployedLinkReferences": {}
}